:020000041000EA
:1000000000B5324B212058609868022188439860DF
:10001000D860186158612E4B002199600221596106
:100020000121F02299502B49196001219960352056
:1000300000F044F80222904214D00621196600F024
:1000400034F8196E01211966002018661A6600F04E
:100050002CF8196E196E196E052000F02FF8012189
:100060000842F9D1002199601B49196000215960AB
:100070001A491B48016001219960EB211966A021F2
:10008000196600F012F800219960164914480160C1
:100090000121996001BC002800D000471248134993
:1000A000086003C880F30888084703B5996A0420EC
:1000B0000142FBD001200142F8D103BD02B5186610
:1000C0001866FFF7F2FF186E186E02BD00000240BE
:1000D000000000180000070000035F00212200005C
:1000E000F4000018222000A00001001008ED00E03C
:1000F00000000000000000000000000074B24E7A12
:1001000000200420F7010010C3010010C5010010F9
:10011000C1010010C1010010C1010010C101001097
:10012000C1010010C1010010C1010010C701001081
:10013000C1010010C1010010C9010010CB01001065
:10014000CD010010CD010010CD010010CD01001037
:10015000CD010010CD010010CD010010CD01001027
:10016000CD010010CD010010CD010010CD01001017
:10017000CD010010CD010010CD010010CD01001007
:10018000CD010010CD010010CD010010CD010010F7
:10019000CD010010CD010010CD010010CD010010E7
:1001A000CD010010CD010010CD010010CD010010D7
:1001B000CD010010CD010010CD010010CD010010C7
:1001C00000BE00BE00BE00BE00BE00BE00F04BF888
:1001D000103800BEF2EB8871C0170110EC17011047
:1001E0003402001090A31AE700202149086006C8D5
:1001F00081F3088810471F48006800282FD10DA4FC
:100200000ECC002902D000F012F8F9E71A491B4A77
:10021000002000E001C19142FCD1194988471949E9
:1002200088471949884700BEFDE701C901C29A42C3
:10023000FBD37047EC170110C00000201C1A0020EF
:10024000543101100000042000000420543101103A
:1002500000100420001004200000000070470B482C
:1002600003F0D2F80047EFF30580C0B270470000FA
:1002700008ED00E0000000D0281A0020741E0020C5
:10028000CD1D0010A5050010891D00105756000057
:1002900006005250ABB36053F4F500100600525004
:1002A000861C030204F60010060052505422A29D40
:1002B0000CF6001005005250DE65F4685431011050
:1002C000F8B5C04610B5064C2378002B07D1054B76
:1002D000002B02D0044800E000BF0123237010BDB2
:1002E000281B002000000000E0E60010044B10B5C1
:1002F000002B03D00349044800E000BF10BDC046F6
:10030000000000002C1B0020E0E60010F0B5DE46E7
:1003100057464E464546E0B58DB005000C000392A9
:100320007F4B99467F49180004F03EFB07007E4949
:10033000484604F039FB06001022002108A804F00A
:1003400039F880235B029B460893F8235B020993EC
:100350008021C9028A460A91C02109030A91FA1C28
:10036000FB011203134309938020C00580460B90C4
:100370006E4A1340034309931022002104A804F09D
:1003800019F858460490F8235B02059353460693E8
:10039000C02109030691330008331A00F301120348
:1003A000134305930123AB409B461A0004214846A2
:1003B00004F016FB5B465A460421484604F046FB0F
:1003C0000621280000F028F90023009301332200C1
:1003D0000521484604F072FB0621200000F01CF9BC
:1003E00000220121200000F02FF90A9B0293504ABD
:1003F0001A4080231B031A430A92069B02934D4B1B
:1004000002990B4051460B430693079902914A49C2
:1004100002980140E0030143079105990291474981
:100420000298014024060C4305940B99029144481C
:100430000840010029438020400308430B904149B4
:100440000840AD0228430B909200920841460A43AF
:100450000A929B009B0880221206134306930520F4
:1004600001F04AFE03F0AEFE041C039BD80003F02B
:10047000A9FE011C201C03F086FE051C03F0CAFE29
:1004800084B2002C47D0200003F09CFE011C281CE5
:1004900003F06FFE8721C90503F08BFE03F0BAFE5F
:1004A000C3B21B0224041C430494281C03F0B2FEB4
:1004B00084B2002C31D0200003F084FE011C281CE3
:1004C00003F057FE8721C90503F073FE03F0A2FE77
:1004D000C0B20002240404430894114C08AB3A0053
:1004E0000421200004F022FB2368102293431343CD
:1004F000236004AB32000521200004F017FB2368C1
:1005000020229343134323600DB0F0BCBB46B24698
:10051000A946A046F0BD0023C3E70020D9E7C046A6
:100520000000205020E7001018E70010FFFFFF9F99
:10053000FFFFF5C1FFFF0AFEFF7FF0FFFFFFFFE0B7
:10054000E0FF0FFCFF83FFFF70B582B005000E1EB9
:100550000DD0941B01940F2C0ED82868012C14D0B8
:10056000002C14D02200310003F02AFF0FE091424A
:10057000EFD00B4804F08EFB002201A9280004F004
:10058000B9FB2860019BAB60E7E733780370019A01
:100590006A602B689B1800221A7002B070BDC046BA
:1005A000E0E6001030B587B004F0CAF8E12252024C
:1005B00004210520FFF7AAFE192000F05FF8D023E0
:1005C0001B06802292045A6202AB00930F4900235B
:1005D0000A006846FFF7B8FF0BE0D0242406802508
:1005E000AD04A561C82000F087FF6561C82000F058
:1005F00083FF074A11780029EFD00132054B5B6871
:10060000DB03FBD4034B1961F4E7C046B0EF0010E5
:100610000CE700100000205010B58300084A9446F3
:1006200063441C6840226240C0241440802252016E
:1006300013431C60C000034B9C466044416010BDE6
:1006400004C001400040014080000B4B9C466044C8
:1006500000290DD00823002A0CD00422134302687D
:1006600053400C2213408022520110430360704714
:100670000023F0E70022F1E704C0014010B5012398
:100680008340D0221206936293610521FFF7C4FFD5
:1006900010BD0000EFF3108072B6034B1B68002BF7
:1006A000FBD0BFF35F8F70472C0100D0BFF35F8F8B
:1006B000024B00221A6080F3108870472C0100D092
:1006C000F8B506000C001500FFF7E4FFE308F71883
:1006D000F15C07222240012393400B4205D1DBB29B
:1006E0000B433B70FFF7E2FFF8BD2100280001F04B
:1006F000E9FB0000034B1B6802201840431E984191
:10070000C0B2704700C00640002307E0054A9A18AF
:100710009200BFF35F8F0021116001331F2BF5D9C9
:100720007047C04640000034054A1078431CDBB2D5
:100730001370172B02D9130010221A707047C0468D
:1007400000110020074B9B68103080001950BFF348
:100750005F8FBFF35F8F044B0021196082F3108815
:100760007047C04600ED00E0240100D010B5091A22
:10077000081F0A4B9C466144094A914208D8C307A6
:1007800006D440104005400D064B184380B210BD02
:10079000054B064A9921064801F0FAFAFC070000C9
:1007A000FE0F000000E0FFFF44E700108CE900109E
:1007B00074E7001010B5091A04394C08090B08D168
:1007C0004905490D064A11430180064B23434380E6
:1007D00010BD054B054AA121054801F0D9FAC046D4
:1007E00000F0FFFF00F8FFFFB8E7001060E900101D
:1007F00074E7001001238340034A10681840431E29
:100800009841C0B27047C04600E100E0002904D022
:10081000034B1860034B18607047034B1860FBE7ED
:1008200080E200E000E100E080E100E010B501239B
:1008300083401800FFF7EAFF10BD0000024B9B68E1
:1008400010308000C058704700ED00E070B5040023
:100850000D00EFF3108672B60C4B1B68002BFBD01B
:10086000BFF35F8F2000FFF7E9FF094B984201D0EB
:10087000A84205D1320029002000FFF763FF70BDB8
:10088000044B054A7C21054801F082FA240100D07E
:10089000CD010010C8E70010A8E9001074E70010AF
:1008A000F0B5CE46474680B583B006000D00EFF3A5
:1008B000108872B6564B1B68002BFBD0BFF35F8FBE
:1008C000544B9A6834001034A300D758524B9F42BF
:1008D00007D0AF4200D199E00197504BFB1A2F2B64
:1008E00009D9424639003000FFF72CFF03B0C0BCE5
:1008F000B946B046F0BD3000FFF77CFF81460021CD
:100900003000FFF793FFBFF35F8FFFF7ACFC0028C9
:1009100001D0844211D10123019C9C430022A36891
:10092000AB4212D00622A256002A0DDB53009B18C0
:100930009B002200394CE418F1E72C21384B394A4E
:10094000FF31394801F024FA2200AB4257D1062585
:100950006557002D39DB6B005B199A002F4B9B18F4
:100960009A68A260DA79E27106229A56A2719B799E
:100970005BB2002B10DABD200002A0806B005B1977
:100980009B00264AD318294A117899711570494657
:100990003000FFF74BFFA4E7201D6B005B199B00A5
:1009A0001E4A9B181A1D9B88D90A1C2907D15B0572
:1009B0005B15023359005118FFF7D8FEDDE71C4BD9
:1009C0001C4AA721184801F0E3F9002812D1002A97
:1009D0000ED0FF239371184B9380144A1378A371A0
:1009E000164B0E49641A644163431B0D1370CEE726
:1009F000094FF2E7201D1249FFF7DCFEC7E760212F
:100A0000104B084AFF31084801F0C2F9024F68E76D
:100A1000240100D000ED00E0CD0100100411002001
:100A2000DCE8001078E9001074E70010721E002066
:100A3000C4E8001098E9001000BDFFFFAAAA00005A
:100A40003E11002000E9001070B5040001260643A5
:100A50002D4BF31A2F2B28D8FFF705FC00282BD09D
:100A6000EFF3108C72B6294B1B68002BFBD0BFF341
:100A70005F8F274D22002449521A524155432D0DB4
:100A80006DB2244B9B6880001B58B3421BD00022E0
:100A9000032A32D853009B189B001B49CB189B7923
:100AA0005BB2AB421FD00132F2E7C2211A4B1B4AA4
:100AB00049001B4801F06CF988211A4B174AFF3195
:100AC000174801F065F9134B9B68174A1A50174BEA
:100AD0001A78A2711D70BFF35F8F0C4B00221A6051
:100AE0008CF3108870BD08005300991889004118D4
:100AF000FF268E710E4A8A80E9E7CC210D4B074A0A
:100B00004900074801F044F904110020240100D0F5
:100B1000AAAA000000ED00E008E9001044E9001076
:100B200074E7001030E90010CD010010721E0020A3
:100B300000BDFFFF3CE900100022044B02E0044925
:100B400002C30132072AFAD97047C04600E400E028
:100B500080808080024B9C46614489000160704720
:100B60004000003470B505000C00080000F014FDD2
:100B7000200000F01DFE0849200000F05DFDFFF799
:100B8000D3FD064B9C466044800068602C75A40031
:100B9000034BE55070BDC046A90E00104000003464
:100BA000401C00200A4B1A68EFF3108172B61368DC
:100BB000002BFCD0BFF35F8F054B1B68BFF35F8F2B
:100BC00000221A6081F3108840BF00200021704786
:100BD000541E002010B5002922D003681B7B9942C7
:100BE0001ED8174B9C466144090183689C466144AA
:100BF0000C684968002A19D003681B7B9A4215D8F3
:100C000083680F488446624412019A18106853683A
:100C1000020001208B4201D80ED00020C0B210BDCE
:100C2000084B094A3B21094801F0B2F8054B064A36
:100C30003B21064801F0ACF8A242EFD8EDE7C046F0
:100C4000FFFFFF0F18EA0010A4EC0010D8E9001015
:100C500010B500291ED0037B99421BD84B005B18AE
:100C6000033B0468A4466344002919D0002A1DD020
:100C7000914221D0002A25D0047BA24222D80468C8
:100C800050008018033820188170197800291FD16E
:100C90001A7010BD104B114A6821114801F078F804
:100CA000104B114A6F310E4801F072F80F4B0E4A8B
:100CB00070210B4801F06CF80D4B0B4A712108486C
:100CC00001F066F8044B054A6821054801F060F818
:100CD00041701A70DDE7C0464CEA001010ED0010BC
:100CE00068EA0010B8EA0010ECEC0010C4EA00104A
:100CF000D0EA001070B506000D001400002914D0D1
:100D0000002A14D0806873689847002806D0220013
:100D100029003000FFF79CFF280007E02A0021008F
:100D20003000FFF795FF200000E0100070BD0800C4
:100D3000FCE70000F0B583B00500009201930AAB18
:100D40001C780BAB1F78002C26D003685A7B94428A
:100D500007D10123002B19D1002C3BD1200003B077
:100D6000F0BD002C0CD01A7B944209D81A6863009D
:100D70001B19033BD3189B78002BEBD00123E9E729
:100D80003E4B3F4A68213F4801F002F83E4B3F4A44
:100D900065213F4800F0FCFF03689C7B002CDBD002
:100DA00012D01A7B94420FD862001219033A1968C4
:100DB0008C46624451789973002900D1D97300237D
:100DC000937053701370C7E72C4B2D4A68212D4840
:100DD00000F0DEFF002C3AD02B681B7B9C4236D8FB
:100DE0002C4BE3181B01AA6894466344009A1A60CE
:100DF000019A5A60089A9A60099ADA602E68002C63
:100E00002BD030D0337B9C422DD863001B19033B81
:100E100032689446634400229A705A701A70717B4B
:100E200022003000FFF766FF7073844200D095E720
:100E3000287D009A019B00F047FC061E01D0002F80
:100E400017D00C9B002B00D188E71E7086E7124B51
:100E5000124A3B210E4800F09BFF114B114AA5217D
:100E6000084800F095FF054B054A6821054800F049
:100E70008FFF2868210000F04FFEE2E74CEA0010E7
:100E800010ED001068EA0010E8EA00101CED0010F8
:100E9000D8E90010FFFFFF0F18EA0010A4EC0010C3
:100EA000D4E9001000ED0010F0B5DE4657464E467E
:100EB0004546E0B58BB00990002308938200B24B01
:100EC000D658370032E0B14BB14A3F21B14800F06B
:100ED0005FFFB14BB14A3B21B14800F059FFB14B24
:100EE000B14A8C21AE4800F053FFB04BAE4A90217E
:100EF000AB4800F04DFFA84BAD4A4021A84800F098
:100F000047FF2A686B68099800F0DEFB00239A46C9
:100F100098467B68BFF35F8F00221A6086F31088C3
:100F20004346002B51D1002800D126E100F040FBC0
:100F300002000B1EC7DB0020002106900791786895
:100F4000EFF3108672B601680029FCD0BFF35F8F03
:100F5000396888464C7B002C32D0BAD0097B8C4251
:100F6000B7D8944965182D01B9688C46654428683E
:100F70006968801A99410029C3DC01D10028C0D1D9
:100F80000021404600F0BEFDA042A8D12A686B684F
:100F900006920793AB689846EB689A464346002B47
:100FA000A3D0002CA7D03B681B7B9C42A3D8631E18
:100FB000FA68D35C08931B02184338610020A8E745
:100FC00000239A4698460020A3E7089B1B02234370
:100FD000994651461800C04705000E007A68EFF3A5
:100FE000108B72B6136859424B41D9B2002BF9D11C
:100FF000BFF35F8F002E26DB002E52DD3B69002BF6
:1010000053D04B4572D100F0D3FA02000B1E73DBB4
:101010000100180052197341984202D804D191423C
:1010200002D901225242D317002B6BDB002104911D
:1010300001310391029451460191414600913800DB
:10104000FFF778FE49E03B69002BD5D04B451CD11A
:10105000069A079B10001900521BB341994202D80F
:1010600004D1904202D901225242D317002B12DB45
:1010700000210491013103910294514601914146AE
:1010800000913800FFF756FE27E04B4B464A9F2160
:10109000434800F07DFE3D4B3D4A3F213D4800F076
:1010A00077FE002E01D1002DA8D13A68002C45D042
:1010B000537B9C422CD1012100293FD1D37B002BB3
:1010C00042D1D473002C52D03B681B7B9C424ED83B
:1010D000FA68013C135D0133135500233B617A68C4
:1010E000BFF35F8F13608BF310881FE7324B2E4ADC
:1010F000A2212B4800F04CFE244B254A3F212548D5
:1011000000F046FE214B224A3F21224800F040FEDB
:10111000002C0DD0137B9C420AD863001B19033BA3
:101120001068844663449B78002BC5D00121C3E737
:10113000224B234A6821234800F02AFE224B234AEF
:10114000F621204800F024FE002B0AD0117B8B42B0
:1011500007D85900CB18033B11688C4663445C7078
:10116000AFE7164B164A6821164800F011FE0A4BED
:101170000F4A40210A4800F00BFE0BB0F0BCBB4602
:10118000B246A946A046F0BD401C002010EB00105E
:1011900070EC00102CEB001018EA0010A4EC00100A
:1011A000D8E9001078EB001088EC001090EB0010EC
:1011B000C8EC0010FFFFFF0F9CEB00104CEA001082
:1011C00010ED001068EA0010D8EB0010DCEC001005
:1011D00010B50A4B5B68002B04D00A210848FFF7C2
:1011E000B9FC10BD054C2300064A1021206800F010
:1011F000A9FB03212000FFF7B5FCEEE74C1100200E
:10120000541E0020D50B001010B5064B5B68002B58
:1012100001D0044810BD044B044A5C21044800F08E
:10122000B7FDC0464C110020FCEB0010B0EC0010E4
:10123000D8E90010F0B5DE4657464E464546E0B5C3
:101240008BB0804616001F00149B9A46159B99464A
:1012500016AB1B789B461F2302AA944663440022C8
:101260001A7032E0002809D042461268127B904280
:1012700004D8421E4146C9688A5C48E0434B444A50
:101280004021444800F084FD0798002B75D05B4650
:10129000002B72D04946D04704000D0003000B43D9
:1012A00000D171E0002946DB00F082F906000F1E34
:1012B00055DB36196F41B94202D804D1B04202D988
:1012C00001267642F717002F4FDB43465A68EFF3AB
:1012D000108472B6136859424B41D9B20791002B62
:1012E000F8D1BFF35F8F1F3302AA9446634404937F
:1012F0000023039302934B4601935346009332001D
:101300003B004046FFF716FD031EABD102004146ED
:101310004968BFF35F8F00250D6084F31088002BB0
:1013200029D01F2302A98C4663441B78002BABD124
:1013300012021043A9E732003B00361BAF41BB420B
:1013400002D804D1B24202D901267642F717002F03
:10135000BBDA114B114A3F21114800F019FD0E4B29
:101360000E4A3F210E4800F013FD0B4B0B4A3F2164
:101370000B4800F00DFD012040420BB0F0BCBB4615
:10138000B246A946A046F0BD0798F6E718EA001055
:10139000C8EC0010D8E9001010EB001070EC001041
:1013A0002CEB0010F0B587B006000F00FEF75BFFD6
:1013B00000281FD106246442E517A4197D41BD42CF
:1013C00002D803D1B44201D900240025002D14DB3A
:1013D0000494059500F0ECF802000B1E13DBA41A30
:1013E0009D41002D17DC14D03000390000F0ECF8DE
:1013F00007B0F0BD234800F065FD234B234A3F2191
:10140000234800F0C5FC204B204A3F21204800F033
:10141000BFFC002CE8D0FFF7F7FE002302930193F6
:101420001C4B0093049A059BFFF704FF002818DA71
:10143000DAE7002300E00023002BD5D1164B1A6811
:10144000EFF3108172B61368002BFCD0BFF35F8FEF
:10145000114B1B68BFF35F8F00221A6081F3108865
:1014600020BF0499059A0D4B5B6A9A42E3D80B485A
:10147000806A884203D29A42DBD00123DCE7012351
:10148000DAE7C04620EC001010EB001070EC001002
:101490002CEB0010A50B0010541E0020004005404E
:1014A000F8B504000D0000F083F802000B1E10DBFD
:1014B00020002900801859418B4202D804D1824271
:1014C00002D901204042C117002908DBFFF76AFF5B
:1014D000F8BD064B064A3F21064800F059FC034B75
:1014E000034A3F21034800F053FCC04610EB0010B4
:1014F00070EC00102CEB001010B5FA2292000023C3
:10150000002102F019FEFFF7CBFF10BD70B5EFF31D
:1015100005833F2018401038EFF3108C72B6194B3A
:101520001B68002BFBD0BFF35F8F012319008140A4
:10153000154A5163154A12781400C440234214D04E
:10154000114B5C6A8300124D5B599C4206D38300A9
:10155000104C1B598A430D490A7007E00A4A031DC3
:101560009B0099589950002300E00023BFF35F8F40
:10157000044A002111608CF31088002B00D098479A
:1015800070BDC046280100D000400540731E0020F9
:10159000581E0020B81B002010B50100024A034865
:1015A000FFF78EF810BDC04640ED0010711E002000
:1015B000044B5B6A034A906A1900536A9942F9D155
:1015C0007047C04600400540084B5B6A01E0074B8E
:1015D0005B6A8B42FBD301E0044B5B6A8B4203D115
:1015E000024B9B6A8342F7D37047C04600400540D8
:1015F00070B504000D00FFF7DBFF02000B002000B8
:101600002900801859418B4202D804D1824202D964
:1016100001204042C117002902DBFFF7D5FF70BD52
:10162000024B034A3F21034800F0B2FB10EB0010CD
:10163000ECED00102CEB001070B504000D00EFF382
:10164000108672B61B4B1B68002BFBD0BFF35F8F5D
:10165000002D1CD02000FFF7F1F8174B83420BD070
:1016600019002000FFF7F2F801212000FFF7DEF853
:101670000123A340114A1360A400114BE550BFF3AE
:101680005F8F0C4B00221A6086F3108870BDA20099
:101690000B4B0021D1500122A2400A490B78934301
:1016A0000B7005492000FFF7FBF800212000FFF731
:1016B000BDF8E4E7280100D00D15001038600540A2
:1016C000B81B0020731E0020F0B5DE4600B584B0C4
:1016D0000400150001921E000293FFF769FF0395B5
:1016E0008E4202D84ED185424CD9EFF3108B72B6A0
:1016F000274B1B68002BFBD0BFF35F8F254A177861
:101700000125A540EBB23B431370234B5D63221DC3
:1017100092000199D150A2002049029850501B6AB2
:101720002B4212D11C4B1B6C2B4208D00020BFF364
:101730005F8F174B00221A608BF3108823E0184B41
:10174000184AC121184800F023FBFFF731FF8E42F1
:1017500014D802D1039B834210D80E4B1B78BB4296
:101760000ED00D4B1D625D631F2004400123A3407A
:101770000E4A1360074B1F701E38D8E70020D6E7CB
:101780000120D4E7012004B080BCBB46F0BDC046B8
:10179000280100D0731E002000400540581E002084
:1017A00064ED0010D0ED001088ED001080E200E044
:1017B000EFF3108C72B60B4B1B68002BFBD0BFF302
:1017C0005F8F01238340084A136208490A789A43CD
:1017D0000A70BFF35F8F034B00221A608CF31088EE
:1017E0007047C046280100D000400540731E00200D
:1017F00010B500291ED0037B99421BD84B005B1803
:10180000033B0468A4466344002919D0002A1DD074
:10181000914221D0002A25D0047BA24222D804681C
:1018200050008018033820188170197800291FD1C2
:101830001A7010BD104B114A6821114800F0A8FA27
:10184000104B114A6F310E4800F0A2FA0F4B0E4AAE
:1018500070210B4800F09CFA0D4B0B4A712108488F
:1018600000F096FA044B054A6821054800F090FA0A
:1018700041701A70DDE7C0464CEA0010F8EE001027
:1018800068EA0010B8EA0010E4EE0010C4EA0010A4
:10189000D0EA001070B506000D001400002914D025
:1018A000002A14D0806873689847002806D0220068
:1018B00029003000FFF79CFF280007E02A002100E4
:1018C0003000FFF795FF200000E0100070BD080019
:1018D000FCE7000010B50023437301338373037BDF
:1018E000C3730123027B9A4214D9002B0CD0027BD4
:1018F000934209D85A00D218033A01688C466244D0
:101900000133DBB25370EDE70B4B0C4A68210C48F6
:1019100000F03EFA002A09D0924207D8016853002D
:101920009A18033A8A180023537010BD024B034AD9
:101930006821034800F02CFA4CEA0010F8EE001081
:1019400068EA001010B5017342608360FFF7C2FFC0
:1019500010BD000070B50400081E00D170BD002944
:1019600034D0237B994231D84B005B18033B22686B
:10197000944663445A78002AF0D02DD0237B9A42B3
:101980002AD853009B18033B21688C4663445D783A
:1019900000215970002825D0237B984222D843008B
:1019A0001B18033B21688C466344002159700100D9
:1019B0002000FFF76FFF060029002000FFF7CAFF95
:1019C000020031002000FFF765FFC7E7084B094A16
:1019D0006821094800F0DCF9054B064A68210648F1
:1019E00000F0D6F9024B034A6821034800F0D0F911
:1019F0004CEA0010F8EE001068EA001070B505001F
:101A00000C001600002928D02DD0037B99422AD83B
:101A10004B005B18033B0268944663445A78002AE3
:101A200027D19A78002A2AD11978FFF793FF03006B
:101A3000002E03D0EA7B002A27D1EC73002B37D18C
:101A4000002C49D02B7B9C4246D82B6861000C1996
:101A5000033C1C190023637070BD224B224A3821BD
:101A6000224800F095F9224B224A6821224800F0D2
:101A70008FF9224B1C4A3A211C4800F089F9204B6F
:101A8000194A3B21194800F083F9002A0AD0297B22
:101A90008A4207D851008A18033A29688C46624462
:101AA0005470CAE7124B134A6821134800F070F9CA
:101AB000002B0BD02A7B934208D843001B18033B12
:101AC0002A689446634400229A70B9E7084B094A91
:101AD0006821094800F05CF9054B064A6821064870
:101AE00000F056F904EE0010D0EE00100CEE0010DD
:101AF0004CEA0010F8EE001068EA00104CEE0010FE
:101B000074EE001070B504000A00457B2900FFF751
:101B100075FF6073280070BD70B50400002967D0A0
:101B2000437B8B420ED0002911D0037B99420ED803
:101B30004B005B18033B0268D0188378002B0CD154
:101B4000002056E00121FFF7DDFF012051E0294B85
:101B5000294A6821294800F01BF9002B20D0227B5C
:101B600093421DD85A00D318033B2268D218256827
:101B7000EB5C8B421AD0002B1BD0227B934218D8EF
:101B80005A00D318033B2268D21853788B4216D0E0
:101B9000002BF0D11A4B1B4A67211B4800F0F8F8C4
:101BA000144B154A6821154800F0F2F84378137079
:101BB00007E0104B104A6821104800F0E9F843781C
:101BC000537000238370437001222000FFF716FF3B
:101BD0000200617B814205D02000FFF75BFE60734D
:101BE000012006E0094B074A6D21074800F0D0F8B4
:101BF000002070BD4CEA0010F8EE001068EA0010FA
:101C00003CE90010B8EE00100CEE001098EE001049
:101C100010B50400FEF788FD01002000FEF79AFFD2
:101C2000FF232371BFF35F8F10BD10B50400FEF7D3
:101C30007BFD01002000FEF78DFFFF2323710023B1
:101C40006371BFF35F8F10BD70B504000D000620F7
:101C500000F052FAC000290001F02AFCC60908D0A1
:101C60000E4B9E4217D87F2318400130350046089E
:101C700000E001256562A6622C34802080010443C7
:101C800000232360062000F037FA8000A90189199B
:101C900001F00EFC70BD0026014DEBE7FEFF0000D9
:101CA000FFFF0000002909D00A22064B9C46604431
:101CB000434258414000044BC252704780225200B8
:101CC000F3E7C0460080FCBF681E002070B5050029
:101CD0000C00062000F010FA002829D0164B9D4277
:101CE00027D08022D203154B1A60154B1A60154B72
:101CF0009B6811009943FAD100212800FFF7D2FF19
:101D000021002800FFF7A0FF2C002C34E96A602294
:101D10004A406E21114080225201224311600A4B39
:101D20002B6380239B01234310221A600323AB649F
:101D300070BD80221204D6E70080034000E000401E
:101D400000F0004000C000400103000000BEFDE7BD
:101D500003000A4A1268002A08D0084A1068C3180B
:101D6000074A9A4206D3054A13607047034A054959
:101D70001160F2E701204042F7E7C0463C1C00201A
:101D800000000420741E002010B5FFF7DFFF0000E4
:101D900010B582B00C001900002A0CD0084B002AA4
:101DA0000BD00192009323000200064802F0BCFC15
:101DB0000120FFF7CBFF044BF1E7034AF1E7C046F0
:101DC000A4EF0010B4EF0010B0EF001070B52B4B73
:101DD0002B4A1A602B4B2C4A1A602C4B9A682A4BC0
:101DE0009343FAD12A4C01E008CC9847294B9C42F6
:101DF000FAD300F001F9234B274A1A60234B9B6862
:101E0000DB43DB01FAD1254B40229A675A671A67F8
:101E1000DA66234C09E0234B234A83212348FFF74A
:101E2000B7FF2000FFF7F4FE0834214B9C4209D293
:101E30002368002BF5D0012BEDD12000FFF7F5FE34
:101E40000834F2E71B4CA1681B4DC022280002F0A9
:101E5000B7FAA560FEF707FA002800D000BEFEF72B
:101E600053FCFEF769FEFFF7B3F9144C01E008CC10
:101E70009847134B9C42FAD370BDC04600E0004027
:101E8000BFCDFBFE00F00040FE7F3C0000C00040E4
:101E9000001A0020101A0020FFFFFF0100F001408F
:101EA000F8190020E4EF00105CF0001004F00010BE
:101EB000001A002000ED00E000000020101A0020B1
:101EC0001C1A00200FB400B583B0084802F0FAFBDA
:101ED000049B002B07D005A90191180002F002FC19
:101EE000034802F0EFFB0120FFF730FF4CF0001039
:101EF0009CF90010F8B5DE4657464E464546E0B51B
:101F000005000F0092460A9A93424ED31A0E91464C
:101F10001E020A9A00233000494601F00BFB80465E
:101F20006C006419A4002F4B9C4664446368834290
:101F300000D260602B1FDBB29B46012B3BD9C02334
:101F40009B012343802212011A60AB00264A995854
:101F5000002905D0506901F0ABFA01300138FDD1FC
:101F600053465A0123685A40E0231A4080235B01FC
:101F700023431A605A46012A28D980239B01234310
:101F8000802212011A6043466360424600233000FB
:101F9000494601F0CFFAAD00134B58510120F0BC77
:101FA000BB46B246A946A046F8BD104B104A2D21AB
:101FB0001048FFF7EDFE012FC1D1C0239B01234341
:101FC00003221A60A368DB07FCD5C9E721687940C2
:101FD00003220A401A60A2680123BB401342FAD0D0
:101FE000CBE7C04600800040C81B00206CF000100A
:101FF000CCF0001080F0001030B583B00C2000F061
:1020000021F9FEF777FB00280DD0002304E09900AA
:102010002D4A2E4888500133092BF8D92A4B2C4AD7
:102020005A6203B030BD2B4B00229A6700F012F9C0
:10203000294B01221A60274B5B6C012BFBD1274BEC
:1020400003221A60234B9B6B012BFBD101330093BE
:102050000433234A0121234800F054F80523009358
:10206000214A0121214800F04DF8214B0093002224
:1020700002210420FFF73EFF1E4D00952B00002299
:1020800001210520FFF736FF104C009423000022A9
:1020900000210720FFF72EFF0094230000220021DB
:1020A0000820FFF727FF0A4B00932300002200219E
:1020B0000920FFF71FFF00952B00002200210620BA
:1020C000FFF718FFADE7C046C81B0020006CDC021C
:1020D0001BB70000008000403CB0004030B0004022
:1020E000002F685900800240008C864700C00240E3
:1020F000001BB700405973078000014BC058704760
:10210000C81B0020F0B5C64600B504000F0090467D
:102110001D000C2001F0CCF906003D4A42443D4B25
:102120009A4243D843011B1A9901C91AC9000918D8
:102130008901404601F0BCF90200103A98235B0087
:102140009A4239D86B1E062B3CD8069B013B062BC6
:1021500038D8069B9D423BD343461A09B2423DD331
:102160002D04069B1E0335432368002B3CDB2A4BC2
:102170009C424AD080225201284B1A60284B1A6098
:10218000284B9B6811009943FAD12760A060231D5A
:10219000C02292011A43212313602368002BFCDA2A
:1021A000E5600823136080BCB846F0BD1E4B1F4A93
:1021B00011211F48FFF7ECFD1E4B1C4A19211C483A
:1021C000FFF7E6FD1C4B194A1C211948FFF7E0FDFB
:1021D0001A4B164A22211648FFF7DAFD184B134A0C
:1021E00025211348FFF7D4FD22683F231340BB424B
:1021F000BDD1A3681B051B0D8342B8D1E368EE2255
:10220000D2021340AB42B2D1CDE780229201B3E7B4
:1022100080E84BD380F8A93200C0024000E00040C3
:1022200000F0004000C00040DCF000101CF2001084
:102230003CF1001080F100109CF10010E8F100105A
:1022400000F2001080239B000343014AD3627047D1
:1022500000800540064BAA2212011A602F22DA6084
:10226000044B054A1A60024B5B68002BFBDA70478F
:10227000004002400060024000B0FA009A4200D2E2
:1022800088547047704710B5002802D00B68496821
:10229000984710BD0100002007E083001B185B0079
:1022A000501C08601078C01830380A681378303B2A
:1022B000DBB2092BF1D97047F0B5DE4657464E46E2
:1022C0004546E0B583B093461F000C9B9A460D9C93
:1022D0000E9B99460F9B9B0703D0B8460F00060044
:1022E00022E00192A34688464E46B9460700B44212
:1022F00007D2551C4B4641462020B84701342A00DE
:10230000F5E73D004F465C46019B9B46B14646467D
:10231000B84637002E0007E0013C551C5346185DB7
:1023200043463900B0472A00002CF5D135003E0065
:1023300047460F9B9B0707D4100003B0F0BCBB4679
:10234000B246A946A046F0BDB0464E46B9462F005B
:102350005D46531BB342EFD2541C4B4641462020EE
:10236000B8472200F5E7F0B5CE46474680B585B0C0
:10237000944698460C9D0D9C0EAB1B789946109A7E
:10238000119B129EB7071CD4002B0CD0F7070AD55F
:102390004F46002F02D10C37374204D0013B02E0F8
:1023A00030272F550134944201D21F2CF8D9F7075A
:1023B00007D59C4205D21F2C03D830272F55013456
:1023C000F5E7F70615D5770505D4002C03D0944220
:1023D00024D09C4222D00F9A102A2BD00F9A102A78
:1023E00030D00F9A022A35D01F2C02D830222A551D
:1023F00001341F2C05D84A46002A31D02D222A55F7
:102400000134039602930194009543466246FFF718
:1024100053FF05B0C0BCB946B046F0BD621E012CEA
:1024200006D00F9F102F01D01400D4E7023CD2E752
:102430001400D0E7B206D1D41F2CCFD878222A5569
:102440000134D1E7B206CCD51F2CCAD858222A5560
:102450000134C9E71F2CC7D860322A550134C3E7BD
:10246000720703D52B222A550134CAE73207C8D593
:1024700020222A550134C4E7F0B5DE4657464E46C1
:102480004546E0B593B081468A46089209931CAB55
:1024900010CB1B789B461E9D219B9846002C03D198
:1024A000102342469A4390468023DB0046461E4056
:1024B00042461A4212D0002C22D000260EE03033C1
:1024C000D9B2771C0AAB99552900200000F0F0FF23
:1024D000AC4216D31F2F14D83E0004002900200060
:1024E00000F0E6FFCBB2092BE9D94246920605D5AA
:1024F0004121C918C9B20A39C9B2E2E76121F8E736
:10250000270043460693209B05931F9B0493039546
:102510005B46029301970AAB0093099B089A5146C8
:102520004846FFF720FF13B0F0BCBB46B246A946B1
:10253000A046F0BDF0B5DE4657464E464546E0B5EE
:1025400095B0089009910A920B931E9E1F9C20AB98
:102550001B789B46229B9946239D269B9A463300D7
:10256000234303D1103352469A4392468023DB0023
:1025700057461F4052461A4219D0330023432DD0EC
:10258000002714E03033DAB27B1C98460CABDA55E6
:102590004A462B003000210000F0CCFFA5421FD896
:1025A00019D043461F2B1BD8474606000C004A464D
:1025B0002B003000210000F0BDFFD3B2092BE1D980
:1025C0005246920605D54122D218D2B20A3AD2B268
:1025D000DAE76122F8E7B145E3D901E00023984644
:1025E00053460693259B0593249B04934B460393E4
:1025F0005B460293434601930CAB00930B9B0A9AF4
:1026000009990898FFF7AFFE15B0F0BCBB46B2467B
:10261000A946A046F0BD0000F0B5DE4657464E463E
:102620004546E0B591B083468A460C9298461A9C7E
:1026300008941B9D099522002B002000290001F021
:1026400008FA002800D0E5E001225242D74B2000D2
:10265000290001F0F9F9002800D0DBE00122524204
:10266000D34B2000290001F0D9F9002800D0D1E097
:1026700000220023089E3000099D290001F0CEF9B8
:10268000002800D0DDE00898099906900791802382
:10269000DB001E9A1A400D921E9A1A4201D106239F
:1026A0001C930698079904000D000A0006000243D7
:1026B00000D1D1E0080D4005400DBE4CA446604459
:1026C0000A03120BBC4B13431F0001F0D5F9BB4AA0
:1026D000BB4B01F060F9BB4ABB4B01F035F904007C
:1026E0000D000022B94B3000390001F024F9B84A3E
:1026F000B84B01F050F902000B002000290001F056
:1027000023F901F0D1F9814601F0B6F904000D007A
:10271000B14AB24B01F03FF90022B14B01F014F97C
:1027200001F0C2F90600AF4AAF4B2000290001F0CA
:1027300032F904000D00300001F09EF9AB4AAC4BB9
:1027400001F029F902000B002000290001F0F3F844
:1027500004000D0002000B0001F01DF90A900B911E
:10276000A44BF31800261F0522002B00200029008F
:1027700001F0EAF80E900F9122002B00002080213A
:10278000C90501F0D8F804000D0000229A4B0A9800
:102790000B9901F0E2F80022984B01F0D5F8020005
:1027A0000B000A980B9901F0D8F80022944B01F025
:1027B000CBF802000B000A980B9901F0CEF802004A
:1027C0000B002000290001F0BFF802000B000E985A
:1027D0000F9901F0C2F80022774B01F0B5F83200F2
:1027E0003B0001F0D8F806000F0004000D00069A27
:1027F000079B01F029F9002830D001235B429C4659
:10280000E14400227D4B3000390001F0A6F80400BD
:102810000D0023E01E9B04931D9B03931C9B0293BE
:10282000089A099B0092019343460C9A51465846D8
:1028300000F0FCF811B0F0BCBB46B246A946A04679
:10284000F0BD0023002406930794069680231B0600
:102850009C46654407951AE7002399464B46633327
:10286000C62B1ED804261E9B1B0526D52B002343F2
:102870000FD0644A644B0698079901F0DDF80028F0
:1028800079D00022614B0698079901F0C7F800281B
:1028900071D01C9B4B4506DD4A46981A431E1C937B
:1028A00003E00526DFE700231C938023DB001E9A4C
:1028B0001A431E920026002399461D9B9E4264D215
:1028C0009F1B02231E9A1A400A921E9A134202D09C
:1028D000002E00D000274B46002B07D022002B00F3
:1028E0000698079901F039F8069007910022002315
:1028F0000898099901F092F8002848D1444B1E9A93
:102900001340049303971C9B0293069B079C009320
:10291000019443460C9A5146584600F087F8002E21
:1029200000D187E71E9B9B063DD54525441C4346A9
:10293000020051462800D8474B46DA179B185340EF
:1029400005220592013E0496002203920A32029269
:102950004A46D00F01900093434622005146584604
:10296000FFF78AFD0A9B002B00D163E702005F4658
:102970000C9E1D9D54E01C9B002B9ED00D9B002B9C
:102980009BD01C9B013B1C9397E7002799E7069C73
:10299000079D2200290080200006844661440B0028
:1029A00006920793AAE76525C0E7C046FFFFEF7FC1
:1029B000FFFFEFFF01FCFFFF0000F03FFB799F509E
:1029C0001344D33FB3C8608B288AC63F0000F83F4A
:1029D00061436F63A787D23F71A379094F930A4080
:1029E0000000E03F1655B5BBB16B0240EF39FAFE6F
:1029F000422EE63FFF03000000002C400000244070
:102A0000000018402D431CEBE2361A3F80842E4113
:102A1000FFF7FFFF541C434651462020B8472200D1
:102A2000931BAB42F6D3100004E7C046F0B5DE4678
:102A300057464E464546E0B595B0069007919346F9
:102A40009946209F1E9A1F9B1000190001F001F863
:102A5000002831D101225242BF4B1E981F9900F02D
:102A6000DDFF002837D101225242BC4B1E981F992E
:102A700000F0EAFF00283DD10022B94B1E981F99B3
:102A800000F0E2FF002850D10022B64B1E981F999B
:102A900000F0C4FF002848D1002200231E981F998F
:102AA00000F0BCFF002850D100239846229B5B0514
:102AB00000D4B6E0002458E0229B0393219B0293AC
:102AC00003230193A84B00934B465A460799069857
:102AD000FFF7F2FB0EE1229B0393219B0293042359
:102AE0000193A24B00934B465A4607990698FFF76D
:102AF000E3FBFFE00423229A1A4022990B4210D0F4
:102B00009B4B002A0FD00422229903912199029114
:102B1000019200934B465A4607990698FFF7CCFB63
:102B2000E8E0944BEDE70322EEE7229B0493219B20
:102B3000039302971E9B1F9C009301944B465A4699
:102B400007990698FFF768FDD4E01E9A1F9B0020A6
:102B5000002100F0F0FE1E901F9101239846A5E78A
:102B60000CAB30221A55013F01341F2C01D8092F1C
:102B7000F6D81E981F9900F097FF050000F07CFF23
:102B800002000B001E981F9900F0D5FEFA007A4B48
:102B90009B181A685B680A920B9300F0FCFE089081
:102BA000099100F0A5FF060000F062FF02000B0093
:102BB0000898099900F0BFFE0890099100226F4B18
:102BC00000F042FF00282ED00136300000F050FF08
:102BD00002000B000A980B9900F026FF002801D094
:102BE00001350026002F2CD1280000F045FF0200FF
:102BF0000B001E981F9900F09EFE06000F00002299
:102C00005E4B00F00BFF002846D100225B4B3000EA
:102C1000390000F019FF00283ED1EB073CD5013503
:102C20003AE0062746E70022544B0898099900F03D
:102C3000F5FE0028D6D1002E01D0F307D2D50136FB
:102C4000D0E7AA461F2C11D8013F0A21300000F01E
:102C50002FFC651C30310CAB19550A21300000F0F7
:102C600027FC092E0ED906002C00EBE755461F2C39
:102C70000CD87B1E002F09D00CAA302111551F0043
:102C80000134F4E72B0055461C00F0E71F2C03D855
:102C90000CAB2E221A5501341F2C10D80A21280003
:102CA00000F0DEFB661C30310CAB19550A21280000
:102CB00000F0D6FB051E01D03400EDE734000323FD
:102CC000229A1340012B1CD01F2C06D84346002B00
:102CD00032D00CAB2D221A550134229B0393219B39
:102CE000029301940CAB00934B465A460799069801
:102CF000FFF7E2FA15B0F0BCBB46B246A946A046C3
:102D0000F0BD219B002B13D04346002B02D10C3386
:102D100013420FD0219B013B2193190003E00CAB20
:102D200030221A5501348C42CED21F2CF7D9CBE772
:102D30002199F8E72199F6E7229B5B0704D50CABB4
:102D40002B221A550134C8E7229B1B07C5D50CABB3
:102D500020221A550134C0E7FFFFEFFFFFFFEF7F8E
:102D600065CDCD4165CDCDC134F2001038F20010F3
:102D70002CF2001028F2001020F400100000E03FB8
:102D8000F0B5DE4657464E464546E0B593B082461E
:102D90008B4690461193002900D1EBE2002755465F
:102DA000119B1878002800D1E7E2252809D07C1C67
:102DB00043463A005946A847119B01331193270017
:102DC000EEE7013311930024119A11780B00203B98
:102DD000D8B2102803D88300D048C3589F460B00B0
:102DE000303BDBB2092B2CD92A292FD000230A93A0
:102DF000119B1A782E2A39D000239A46119A1378FB
:102E0000683BD9B2122976D88B00C549CB589F466A
:102E100001231C4301321192D6E702231C430132E5
:102E20001192D1E704231C4301321192CCE708230D
:102E30001C4301321192C7E710231C430132119247
:102E4000C2E711A8FFF726FA0A90D1E71C9B1A1DCA
:102E50001C921868002804DB0A90119B013311931F
:102E6000C6E702231C4343420A93F6E78022D200BE
:102E700014435A1C11925A781300303BDBB2092BD1
:102E800004D92A2A07D000239A46B7E711A8FFF7EA
:102E900001FA8246B2E71C9B1A1D1C921868002892
:102EA00004DB8246119B01331193A7E70020F8E76A
:102EB00080235B002343511C119152786C2A01D06E
:102EC0001C0018E0C0239B001C430131119112E04B
:102ED00080232343511C11915278682A01D01C0091
:102EE00009E0C0231C430131119104E080235B0001
:102EF0001C4301321192119B18780300253BDAB272
:102F0000532A00D92CE29300864AD3589F46802347
:102F10009B001C4301321192EDE780235B001C43B0
:102F200001321192E7E7782809D0582838D06F2865
:102F300038D0622838D010239C430A2600E010269F
:102F4000582833D0692803D0642801D00C22944338
:102F5000630501D50122944369282AD0642828D02A
:102F6000A30500D59FE0E30500D5B8E0630600D4D3
:102F7000CAE01C9A111D1C911168FF220A40059499
:102F80000A9B0493534603930296002301930092F5
:102F900043463A0059462800FFF76EFA070027E03B
:102FA0001026CDE70826CBE70226C9E720221443E6
:102FB000C8E7A30520D4E30550D4630666D51C9A60
:102FC000111D1C911168FF220A40D317D1185940D6
:102FD00005940A9B0493534603930296D20F0192E1
:102FE000009143463A0059462800FFF745FA07008A
:102FF000119B01331193D3E61C9BDA1D07218A43F1
:10300000110008311C91116853689C46DB170C9322
:103010000D930C9A0D9B100048400E906246534051
:103020000F930E980F990C9A0D9B801A99410E9050
:103030000F9108940A9B0793534606930496002326
:1030400005936346DA0F02920090019143463A00DD
:1030500059462800FFF76EFA0700C9E71C9A111DB0
:103060001C911268D317D118594005940A9B0493F8
:10307000534603930296D20F0192009143463A00C1
:1030800059462800FFF7F8F90700B1E7230605D5F0
:103090001C9A111D1C910023D25E96E71C9A111DEB
:1030A0001C91126891E71C9BDA1D07218A431100CD
:1030B00008311C9108940A9B079353460693049683
:1030C00000230593029313685468009301944346C8
:1030D0003A0059462800FFF72DFA070088E71C9AA6
:1030E000111D1C9105940A9B049353460393029669
:1030F000002301931368009343463A005946280081
:10310000FFF7BAF9070073E723060DD51C9A111DC6
:103110001C9112681204120C31E7C04640F20010F4
:1031200084F20010D0F200101C9A111D1C9112683C
:1031300025E746281AD01C9B0733072293431A0021
:1031400008321C9204940A9A0392524602925C68D6
:103150001B680093019443463A0059462800FFF744
:1031600065FC0700119B0133119319E620231C43D2
:10317000E1E7672801D0472802D180231B011C43C7
:10318000452801D0472801D120231C431C9B07332D
:10319000072293431A0008321C9204940A9A03925D
:1031A000524602925C681B680093019443463A00C1
:1031B00059462800FFF730FA0700119B013311939D
:1031C000EEE502231A002240924623421FD001243A
:1031D0001C9B1A1D1C927A1C9146187843463A0093
:1031E0005946A8475346002B16D1119B0133119322
:1031F0004F46D5E5561C434659462020B847230084
:1032000032005C1C9D42F5D83D001700E0E7012329
:103210003A002F000A9DF4E74A46A9460A9D06E0B7
:10322000571C434659462020C84734003A00661CC4
:10323000A542F5D84D469146D7E71C9B1A1D1C9216
:103240001B6899465346002B00D1013B4E4601E0D6
:10325000013613003278002A02D05A1E002BF7D113
:103260004B46F21A10928023DB0026001E401C42BF
:1032700003D0524501D95346109302231A0022402D
:103280000B92234205D03A0037004C46A9465546DA
:1032900020E03A00109B5F46B3462E0006E0551C26
:1032A000434639002020B04723002A005C1C0A99BD
:1032B0009942F4D835005E46BB46109437004C4620
:1032C000A946554606E01D000134561C43465946A2
:1032D000C84732002078002804D0002FF4D06B1E9D
:1032E000002DF0D117004D460B9B002B03D1119BF5
:1032F0000133119354E50A9F109B06E0561C434688
:1033000059462020A847230032005C1C9F42F5D874
:103310001700ECE721231C431C9B1A1D1C921B6801
:1033200000930594082304935346039310230293B8
:103330000023019343463A0059462800FFF79CF8C2
:103340000700119B013311932AE57C1C43463A0088
:1033500059462520A847119B0133119327001FE5EB
:103360007C1C43463A005946A847119B01331193F0
:10337000270015E50A4B9A4610E5AA46474502D3B1
:1033800043465A1E00E03A00434659460020D047C3
:10339000380013B0F0BCBB46B246A946A046F0BD0B
:1033A000852200100EB410B585B0010007AC08CC22
:1033B00003940122009452420348FFF7E1FC05B058
:1033C00010BC08BC03B018477D22001000B585B0C2
:1033D000029003910121009313004A4202A902487E
:1033E000FFF7CEFC05B000BD872200100148042184
:1033F000014B18478011002029340010014B9B68B5
:10340000184700008011002010B5010018231B8808
:1034100014221088984710BD10B5010018231B888E
:1034200016221088984710BDF0B5C64600B50700B3
:103430000E0000250123984600E00135B5420AD26E
:10344000AC003C192068FFF7DFFF20600028F4D1B2
:1034500000239846F1E7404680BCB846F0BD000026
:10346000124A936F9B0815D29066D166002905D049
:10347000FFE7FFE7FFE7516F106F704704B580214A
:103480000906C2175140002800D0C8430BF0D8F8F5
:10349000002104BDF0B5146E556E576F166FFFF71F
:1034A000E3FF1466556657671667F0BD000000D04D
:1034B000114A936F9B0813D210665166002905D0FC
:1034C000FFE7FFE7FFE7516F106F704704B5002873
:1034D00001D00020C0430BF0B3F8002104BDC0466A
:1034E000F0B5146E556E576F166FFFF7E5FF146653
:1034F000556657671667F0BD000000D094464E4AE7
:10350000926F9208624601D230E0C046F0B54A4E52
:10351000B56F6D08FCD3346E756E776F366F00F043
:1035200025F89446444A14665566576716676246FE
:10353000F0BDC0469446404A926F9208624601D25E
:1035400058E0C046F0B53C4EB56F6D08FCD3346E04
:10355000756E776F366F00F04DF89446364A1466F4
:103560005566576716676246F0BDC046002B24DBE0
:1035700011D000293EDA00B5C943404200D10131E3
:1035800000F038F8C943404200D10131DB435242D8
:1035900000D1013300BD002AEBD1002801D1002960
:1035A00005D00020C90FC90701D1C043410800B5AB
:1035B0000BF01EF80022002300BD00B500290ADB35
:1035C000DB43524200D1013300F014F8C9434042BA
:1035D00000D1013100BDC943404200D10131DB437C
:1035E000524200D1013300F005F8DB43524200D1D2
:1035F000013300BD002923D1002B18D1002A0CD0A3
:10360000BC460D4F38667A6600210023FFE7FFE7CE
:10361000FFE77A6F386F67467047002801D0074888
:10362000010000B50AF0E4FF0022002300BD020003
:103630000B00002000217047000000D0FFFFFFFFBB
:10364000002B00D0BFE0130C28D1002AE7D080B4B3
:10365000114F39667A66FFE7FFE730B4040C7B6FE1
:10366000396F1B0423433B667A66FFE7FFE7FFE7FA
:10367000C04684B27B6F3D6F1B0423433B667A6672
:10368000FFE7FFE7C04600232C042D0C7A6F386F4C
:1036900000196941B0BC7047000000D0F0B59446F5
:1036A0000025140E01D112020835140F01D11201A8
:1036B0000435940F01D192000235D40F01D152008C
:1036C0000135D40B0134254F7C66254C3C660E0C2D
:1036D00093B2FFE7FFE7FFE73C6F6643360C7703E3
:1036E000BE467343DF0B5B04C01AB941130C73432E
:1036F000DB18C91ACE086643360CB64493B273433E
:103700001F0F1B01C01AB941130C73431F0B1B057C
:10371000C01AB941860D8F023E436643360C092D0F
:1037200024DB520A7243801A7703460A6643360C3A
:1037300016235B1BDE40DF40BF1964466643821BD5
:103740007046043506330100D940A840C01900D3A3
:103750000131A24206D20023F0BD0000000000D0DB
:10376000FFFFFFFF121B0130F3D3F1E709277F1B97
:10377000FE406446A2B27243801A00D20139220C84
:103780007243130C1204821A99410B0070460435DF
:1037900013370100F940A840801900D30131002BF4
:1037A00002D1A2420AD2F0BD013000D30131121B76
:1037B000FAD2013BF8D1A24200D2F0BD013000D3D1
:1037C0000131121BF7E7F0B51C0C00D080E00CB4FF
:1037D00000251C0A04D11B02160E334312020835C1
:1037E0001C0B04D11B01160F3343120104359C0B33
:1037F00004D19B00960F334392000235DC0B02D1BB
:1038000092185B4101351C00971864410134464F02
:103810007C66464C3C660E0CFFE7FFE7FFE7C046C0
:103820003C6F6643360C7703BE4697B27743C01BA6
:1038300000D20139C01B00D201399FB27743C91BA6
:10384000C91B170C77437E04FF0B801BB941CE08C0
:103850006643360C0C2D33DBB644120B1F053A437E
:103860001B0B97B27743C01B00D201399FB277433D
:10387000C91B170C77433E043F0C801BB941860DD2
:103880008F023E43664329277F1BFE400C3D77464F
:10389000AF40BF1930BCA2B2ABB272437343801ABF
:1038A0009941220C7243130C1204801A99410200B0
:1038B0000B000137001BA941F9D2781E0021F0BD91
:1038C0000C277F1BFE4077467F0BAF40FF19E0E7D8
:1038D00000245D1C07D0144F7D663966FFE7FFE7C3
:1038E000FFE7FFE73C6F95B29EB265436643401B1E
:1038F000B141150C1E0C6543664336042F0C3E4344
:103900002D04401BB141994204D202000B0020005B
:103910000021F0BD01D19042F7D3801A99410134C2
:103920009942F2D3F6E70000000000D0FFFFFFFF4E
:1039300048404140484018B41B4B5B68FC4601932B
:1039400008BD04DF0B3C001018B4174B1B68FC4685
:10395000019308BD00DF153C00109446134A926F96
:10396000920809D2624618B40F4BDB68FC460193FB
:1039700008BD0CDFCD3E00100C4AF0B5146E556E3C
:10398000576F166F6246FFF7EEFF084A14665566DA
:1039900057671667F0BD18B4034B9B68FC4601934C
:1039A00008BD08DF713D0010501C0020000000D051
:1039B000FFB550404240504059404B40594000E014
:1039C000FFB5154F4C00640D03D0BC4204D10C036D
:1039D00014D80020090D09055C00640D03D0BC4219
:1039E00004D11C030AD800221B0D1B0501264B40E5
:1039F00009D44B4003D58B4200D18242FFBD99428E
:103A0000FCD19042FFBD0B43DB1803431343F5D0B9
:103A1000C9434918FFBD0000FF07000000B5FFF7CC
:103A2000CFFF804100BDC04600B5FFF7C9FF01D9F7
:103A3000002000BD012000BD00B5FFF7B9FF01D98E
:103A4000002000BD012000BD00B5FFF7B1FF80419F
:103A500000BD012040054A00121804D85A0012186F
:103A600001D80020704701207047002070470000F7
:103A70000021002805D17047C1174840401AFAD0EC
:103A8000C90713B5064B1B6898470CBC441CA240E1
:103A90001005120B0349091B09051943114310BDF9
:103AA000501D00201F04000010B54C00620D802343
:103AB000D218DB00D21A5B057E2A10DD9E3A13DA9B
:103AC000CC170903490819435242D140640001341C
:103AD0001532202A05DAD0400843604310BD00208B
:103AE00010BD0846604310BDC80FC018013810BD96
:103AF00018B4044B5B6AFC46019308BD24DF7D408B
:103B000000100000501C002070B513231C78012CFD
:103B100014D0012C14DC022C02DC1F4A1F4B9A64C7
:103B20001F48FFF771FC1F4B186070BD99001A48C1
:103B30001A4A885001331F2BF8D9EAE70023FAE725
:103B40001948FFF769FC05001848FFF765FC0238C3
:103B500003789B007F2B19DD802229000F4800F09D
:103B60002FFC022CD7D1124B1A88B5231B029A4284
:103B700009D1104B1A88104B9A4204D10F4B1A8866
:103B80000F4B9A42C7D00020FEF79CF90D4B0E4A0E
:103B900032210E48FEF7FCF8D13B0010501C0020EB
:103BA0004C330000501D00205344000053460000D9
:103BB00054380000D8380000494600009C38000006
:103BC0005946000070F4001020F50010D0F40010E9
:103BD00007B56046002800D100BE01880A0A0230FD
:103BE000DF2AFAD1C9B2820804D3028840880004CF
:103BF000104300E00068024A5050039007BD0000E7
:103C0000501C00200FB403BC0CBCF0B50124E40729
:103C1000634000E0F0B50C0DCF0F661E3605891B22
:103C2000640503D3C943404200D30131640D03D07E
:103C3000661CF60A07D0E41B00207F00791C890768
:103C40008912803C24031D0DDF0F6E1E36059B1B61
:103C50006D0503D3DB43524200D301336D0D03D016
:103C60006E1CF60A07D0ED1B00227F007B1C9B0711
:103C70009B12803D2D032F1B661B58D4A446202E7B
:103C800046DA20371400BC401D00BD40F2403341ED
:103C90002A4380185941CB0F05D0C943C0430022A5
:103CA00064425041514162464D0D28D10D0D07D15E
:103CB00000281FD0241940414941013A0D0DF9D087
:103CC000640006D3013000D30131002C01D140083B
:103CD0004000013A0BD4941CE40A04D112051144AB
:103CE000DB071944F0BDD907204B194300E0D90781
:103CF0000020F0BD0029DDD1002CDBD1F0BD013268
:103D0000C6074008CD0728434908002EE1D0D9E76F
:103D10003C2E29DA203E40371400BC4000D001245C
:103D2000F24014431A00BB401C43D317ACE7AC4627
:103D3000202F08DA20360400B4400D00B540F840CA
:103D400039412843A5E73C2F0CDA203F40360400D8
:103D5000B44000D00124F84004430800B1400C43B3
:103D6000C117EAE710001900002494E70000F07F73
:103D7000F0B50C0D661E3605891BE60A6405640D58
:103D800002D0651CED0A04D0002001210905803C09
:103D90002403A4461C0D671E3F05DB1BE70A6405D0
:103DA000640D02D0651CED0A04D0002201231B051E
:103DB000803C24037740644497B484B296B2744341
:103DC000070C7E43150C6F4380B26843361802D34C
:103DD000012000043F183004350C00197D41844651
:103DE00088B29AB250430C0C62431F0C7C438EB2D3
:103DF0007E43921902D301263604A4191604170C27
:103E00003618674101BC81B29AB25143040C624337
:103E10001B0C5C4380B25843121802D301200004EB
:103E200024181004130C401863412D185E41002023
:103E3000474106BC88B293B258430C0C6343120C42
:103E4000544389B251435B1802D301210904641819
:103E500019041A0C091862416D1856410020474197
:103E600018BCF902720D1143F0026A0D1043ED0205
:103E70000A0D03D16D1940414941013B124E9B1B74
:103E80007600B3420ED26D0007D301300026714197
:103E90006646354301D1400840001B05C918E407B8
:103EA0002144F0BD0BDA013306D1013004D10131D8
:103EB0004F0D01D04908F2E7E1070020F0BD0136BF
:103EC00031050020EBE70000FF030000F0B51C0DFA
:103ED000671E3F05DB1BE70A6405640D02D0661C04
:103EE000F60A04D0002201231B05803C2403D025C0
:103EF0002D060026F6432E661E096E66CE0FF619B5
:103F0000B44649004F0D02D07E1CF60A03D00020B3
:103F10000021403F3F033E1BB600B444013F7F05F4
:103F2000C91B49082E6F013676089C02950D254362
:103F30007543ED137543AD1301356D10F603761B14
:103F40000CB4CC02450D2C43A2B2B3B25A43270C99
:103F50007B43350C6F43A4B26C431B1902D301247D
:103F600024043F191C041D0CA4187D4124196D4123
:103F7000009A91B2ACB26143170C7C432B0C5F43A7
:103F800092B25A43A41802D301221204BF18220489
:103F9000230C52187B41019C6C431B19520ED90112
:103FA0000A434401A01A81B2B2B2514303145A43E6
:103FB000360C734387B27743D617D21900277E4158
:103FC00036049B191704160C7F185E417316ED1802
:103FD000F301002680337541A90F06D16400690AF8
:103FE000E8055B0A184309D22FE004229444803389
:103FF0007541A90AA8059B0A184326D340414941A7
:104000002404009A019B0D005543641B4343E41AAA
:1040100095B286B27543170C7E43030C5F4392B290
:104020005A43B61802D301221204BF183204330CCB
:1040300052197B4152429C41002C02D40022013093
:1040400051414008CA071043490802B06246D707E9
:104050009210084BD218084B9A4203D212058918C5
:10406000C919F0BD0020002A01DC3900F0BD013380
:104070001905F5E7FD030000FE070000002200B56A
:10408000203200F004F8080000BD000000220B15EB
:104090000AD410B5944600F031F81414013400DA53
:1040A0000021CB17144C20470020002170476244A8
:1040B000343A0CD40C2A07DA040091409040524262
:1040C0002032D440214310BDD843D94310BD203203
:1040D00007D40C469440524220321141D040204334
:1040E00010BD0800C917203203D4524220321041BB
:1040F00010BD1800190010BDAF4000100A0DCC0F04
:10410000531E1B05C91A520503D3C943404200D3AD
:104110000131520D03D0531CDB0A07D0121B0020C3
:104120006400611C89078912803A1203014BD21A7C
:1041300070470000FF03000051434343C9188C46F9
:10414000110C83B24B4310B4040C614392B280B2A1
:10415000504362431C041B0C001910BC594113044A
:10416000120CC01851416144704700004840414062
:10417000484000239C46114B5B68184700239C462F
:104180000E4B1B6818470E4A936F9B0804D20023FE
:104190009C460A4BDB681847F0B5146E556E576F96
:1041A000166FFFF7F4FF064A1466556657671667E1
:1041B000F0BD00239C46014B9B681847541D00200E
:1041C000000000D0491A002808D1084670470000B6
:1041D000C10FC90700D54042002817D0F44603B4E8
:1041E0000B4B1B68984706BC81409E38404280318B
:1041F00007D20B0607D04900490AC00510430843FF
:1042000060470130F8E7490A8902F5E77047000086
:10421000501D002000239C46014B5B6A184700009C
:10422000541D002070B513231D782A48FFF7F4F8B9
:104230000400012D11D0012D09DDA31E1B789B0068
:104240007F2B40DD80222100234800F0B9F823486D
:10425000FFF7DAF8224B186070BD542201001E48A7
:1042600000F0AEF81F4B1A881F4B9A421CD1A723AF
:104270009B011A881D4B9A4216D11D4B1A881D4B63
:104280009A4211D11C4B1A8894239B019A420BD15C
:104290001A4B1A881A4B9A4206D11A4B1A681A4BB3
:1042A0009A4201D1152307E01848FDF70BFE99004B
:1042B0001748094A885001331F2BF8D9144A064B76
:1042C0001A62DA61B7E7134B134A42211348FDF72C
:1042D0005FFDC04653460000541D00204C330000D3
:1042E000501D0020EE290000C40F0000C20D000088
:1042F000962B0000C0B50000182B0000CC2A00004F
:1043000010B50000FC2C000051ED8764B0EF0010E8
:104310002143001034F50010B4F5001068F50010CA
:1043200007B56046002800D100BE01880A0A0230A5
:10433000DF2AFAD1C9B2820804D302884088000477
:10434000104300E00068024A5050039007BD00008F
:10435000541D002010B5040008F030FD002804D0E2
:104360000419034B9C4200D810BD0248FDF7AAFD7A
:1043700000000420C8F5001010B50C0009F0F2F898
:10438000002804D00419034B9C4200D810BD0248F9
:10439000FDF798FD00000420C8F5001010B508F0E6
:1043A00017FD10BD01480421014B18479011002052
:1043B00029340010014B1B681847000090110020A1
:1043C000014B5B68184700009011002010B5FFF703
:1043D000C1FF10BD10B5FFF7E1FF10BD10B5FFF72D
:1043E000DDFF10BD10B50300080011001B689847E1
:1043F00010BD0000F8B507000D001600437C002B2F
:1044000002D0002400200CE0036811002800984727
:104410002DE03B7C10E0022115483B689847601C6A
:104420000134B44214DA002CF3DD2B19013B1B7864
:104430000D3B5A425341DBB22A5D0A2AF0D1002BD0
:10444000EED1A042E7DA211A28183B689847E2E744
:10445000B04203DA311A28183B689847002E06DD6F
:10446000AD19013D2B780D3B5A4253413B74F8BDC9
:1044700048F6001070B505000368002B16D00C4BF1
:104480001C6805E0290004C92000FFF7B3FFE468B9
:10449000002C09D02368002BF9D0064B1B68002B99
:1044A000F0D0A342F3D1EDE700232B6070BDC046EE
:1044B000301C0020381C002070B505000C000B6873
:1044C000802B05D021684B1C23606418257170BDBA
:1044D0000800FFF7CFFFF5E7F0B583B007000E0047
:1044E0000092019328E0A368002B04D0310038002B
:1044F0009847002827DCE468002C06D0134B1D6881
:10450000002DF0D0A542F6D1EDE70099019A104BAD
:104510005B6A9A4209D80E48806A88420FD29A4252
:1045200001D0012302E0002300E00023002B08D18A
:1045300001200021FDF75CF8064B1C68DCE7012335
:10454000F4E70120404203B0F0BDC046381C002013
:1045500000400540301C002010B582B0D0231B065F
:1045600000241C5701A907480AF07AF8002806D150
:10457000019B9C4203D003480AF0A2F8012002B03C
:1045800010BDC046F819002010B502480AF028F8FE
:1045900010BDC046F8190020F0B5CE46474680B59C
:1045A00083B006000D0090461C00FFF7D5FF814642
:1045B0006B1C05D0002C08D0194F1A4B1C6807E063
:1045C000300009F023FA0500F4E7174FF5E7E46837
:1045D000002C17D02368002BF9D0144B1B68002B3C
:1045E00001D0A342F3D12A0031002000B84743464E
:1045F000002BECD06B46D91D0A230B700122200042
:10460000B847E4E74B46002B07D16B1E9D41E8B24B
:1046100003B0C0BCB946B046F0BDFFF7B5FFF4E744
:10462000E5430010301C0020F5430010381C00202A
:1046300010B5030008001100002B05D1044B1A68C7
:104640005B68FFF749FF10BD01204042FBE7C04611
:1046500038ED001010B5030008001400013B012BD9
:1046600006D8002300222100FFF796FF200010BD8E
:1046700001204042FBE70000094A01E00C331A0028
:104680001368002B08D08342F8D1002907D1C368F2
:1046900013600023C36002E0002900D0106070475F
:1046A000301C002010B5064B1C6801E09847E468F8
:1046B000002C03D06368002BF8D1F8E710BDC0468A
:1046C000301C002070B5050009F0A0F9040000239B
:1046D000012201002800FFF75FFFFFF7E3FF200042
:1046E00070BD000070B5A2B004000E00FFF734FFEB
:1046F00005008422002101A8FFF75CFE33002200A0
:1047000001A90848FEF762FE040001A8FFF7B2FE07
:10471000FFF7C8FF002D02D1200022B070BDFFF7C7
:1047200033FFF9E7B94400100FB400B583B004A912
:1047300001C90191FFF7D6FF03B008BC04B01847C8
:1047400010B500F085F810BDF0B583B005000E007F
:1047500000240FE06B46D91D0D230B7000200028AC
:1047600016D193699B06FCD40B781360013001319C
:10477000F5E70134B44219DA0D4B1A682F5D0D4B81
:10478000D31859424B415B000B495B5EBB42E1D001
:104790006B46D91D0F7000200028EAD193699B0653
:1047A000FCD40B78136001300131F5E703B0F0BDA4
:1047B0006C1E00200080FCBF681E0020F0B583B096
:1047C00006000F00002004E06B4607331B782370BF
:1047D0002800B84215DA0E4B1A689369102421009C
:1047E00019401C420DD1451C34186B46D81D0029B8
:1047F000EAD19369DB06FCD4136803700131013000
:10480000F5E7002801D003B0F0BD0338FBE7C04650
:104810006C1E002070B515001C000B4B1860FDF7D6
:1048200055FA002D06DA002C09DA01210748FFF7B6
:1048300023FF70BD02212800FBF7EEFEF3E7022103
:104840002000FBF7E9FEF0E76C1E0020A01100201D
:1048500010B5064B1B78064B1B78E1210123002283
:1048600049020448FFF7D6FF10BDC046E417011007
:10487000E8170110004003400523CB56002B01DB55
:10488000934211D1094B9C466044434258418000F9
:10489000074BC058097901238B40013B93401840D6
:1048A00043425841C0B270470020FCE70000D0AF3F
:1048B000B01B002070B50A79202A19D8174B9C46E6
:1048C0006044434258418000154BC4580123934033
:1048D000013B497949B2002910DB08002025AA1ABA
:1048E000914218DC8B401C4201D00120404270BD37
:1048F0000C4B0D4A40210D48FDF74AFA2020801A42
:10490000002805DB1A0082401442F0D00138F7E796
:1049100001204042EBE701204042E8E70000D0AF31
:10492000B01B00208CF6001010F70010B8F6001035
:1049300070B505000C001600FFF79EFF002801D09F
:10494000002007E01548FDF7BDFA831912339B00DC
:104950005A510130237983420FD9237861780902B3
:104960001943A27812041143E3781B060B4342005B
:104970009A5A530BE9D19219E7E701229A401300A2
:10498000013B074A944665446A425541B340054A93
:10499000AD00A9580B43AB5070BDC046FCF60010EB
:1049A0000000D0AFB01B0020F8B505000E00FBF7EB
:1049B00071FE070031002800FFF77CFF041E09DBB1
:1049C000020031002800FFF7B3FF3800FBF76EFE4E
:1049D0002000F8BD0148FDF775FAC046FCF600104E
:1049E000F8B5CE46474680B507000E0090461D003C
:1049F0004B005B18DB00C318DC331B68994618E0DA
:104A00002800FEF7FBFC42018023DB041343740003
:104A1000A419E4003C192200DC3213604246C24073
:104A200001231A40E0231B021343D83423606B1E7A
:104A30001D40002DE4D171008E19F600BF19DC373E
:104A40004B463B60C0BCB946B046F8BDF8B5CE4653
:104A5000474680B507000E0090461D004B005B18CE
:104A6000DB00C318DC331B68994617E02800FEF70B
:104A7000C5FC42018023DB0413437400A419E40045
:104A80003C192200DC3213604246C24001231A4026
:104A9000094B1343D83423606B1E1D40002DE5D114
:104AA00071008E19F600BF19DC374B463B60C0BC65
:104AB000B946B046F8BDC04680E00000F0B505AC90
:104AC00025784C006418E4000419DC342468A446FA
:104AD000002D01D01F2614E0002612E05401A0256D
:104AE0006D0525434C006418E40004192700DC37E9
:104AF0003D600D4D3543D8342560053B05321F24FC
:104B00002240052BEAD89B06520113434C00621841
:104B1000D20082181500DC352B60034B1E43D832BF
:104B2000166063462B60F0BD80E00000F0B58BB0EE
:104B300004000D00160002680121A9408A430260AA
:104B4000002B35D069004919C90041180A00C83244
:104B50001868106004325868106004329868106059
:104B6000DB68DC310B6069004B19DB00D033E318E4
:104B7000802252011343802212061A601A60234BCE
:104B8000AB40A3602268281D01231F0087403A43E1
:104B900022602268280008308340134323601F22CC
:104BA00016404919C9006418D83426600BB0F0BD0E
:104BB0001022002106A8FFF7FDFB80235B0206936D
:104BC000F8235B0207938023DB020893C0231B03B7
:104BD0000893102206A902A8FFF7F2FB6B005B19ED
:104BE000DB00E3181A00C83202991160039A01929F
:104BF0001A00CC3201991160049A01921A00D03245
:104C000001991160059ADC331A60ACE701010101DA
:104C100010B5002210E09A00124950581249505025
:104C20000133022BF7D911480021FCF7E1FC0E4BB0
:104C300000221A6010BD0132022A08D893000A49E6
:104C4000595808481B589942F5D00023E9E7064B0C
:104C500000221A600648FEF7D7FB0300002100205F
:104C60009847C04654F700101C1A0020400D03005E
:104C700055420000042010B500F0E0F8024B034A52
:104C80000349036000F052FEACF70010394D0010EC
:104C900088F7001070B50500082000F0CFF8290053
:104CA000040001F05DF82000044A054900F03EFED2
:104CB000200000F0D9F800F0FFF8C046515C001069
:104CC000ACF9001070B50500082000F0B7F8290015
:104CD000040001F089F82000044A054900F026FE8E
:104CE000200000F0C1F800F0E7F8C046915C001029
:104CF000B8F900108023086810B5DB05984210D27F
:104D000090420AD95200904207D29A4203D3064AEF
:104D100018000A6002E010000A600130FFF756FB3D
:104D200010BD0248FFF7CEFFFFFFFF3F60F7001006
:104D30000048704778F7001010B50400034B0833A3
:104D4000036000F009FA200010BDC046A4F700106F
:104D500010B50400054B0833036000F0FDF9200096
:104D60000421FFF73BFB200010BDC046A4F7001054
:104D700070B51C4C08386368002B27D0066885196D
:104D8000AB4223D81DD05A680434002A06D10EE065
:104D900051681C1D00291FD013000A009542F7D34B
:104DA00004D12A6894466A6866445A6023681A687F
:104DB000991888420DD05B6806604360236858608C
:104DC00006E01A685B68944666440660436060606B
:104DD00070BD92191A60FBE75B681A6899188842DF
:104DE000E9D1F6E7501B0020020010B50832083068
:104DF00000D3082207231049073248689A43002845
:104E000013D0043103E0011D406800280DD0036871
:104E10009A42F8D89C1A072C08D9831840681C605D
:104E20005860086802600B60083010BD036043687A
:104E300008300B60F9E7C046501B002070B5803089
:104E40000500FFF787FA041E07D08022002120000A
:104E5000FFF7B0FA2000803070BD2800FFF7C4FFD4
:104E6000041EF2D100F002FD074A8038936810B5A5
:104E7000984203D9D2689B18984202D3FFF78EFA62
:104E800010BDFFF775FFFBE7501B002070B59E2596
:104E9000084C2D012800E560FFF75CFAA0600028AF
:104EA00004D0002360600560436070BDE060606016
:104EB000FBE7C046501B00201EB400F093F81EBC58
:104EC00009F0C6FBF0B5C64600B51E0003780C001D
:104ED00082B0472B1DD00023284D01932B6828005A
:104EE0009B6898470127002803D0019B01371B6866
:104EF0000193236829001B692000984601AA012319
:104F0000C047002824D10027380002B080BCB84632
:104F1000F0BD43784E2BDED18378552BDBD1C3789F
:104F2000432BD8D10379462B1CD00379432BD2D104
:104F300043792B2BCFD183792B2BCCD1C379012B68
:104F4000C9D808D003005830203B1D680190C5E740
:104F5000019B3360D8E7203800680300783B1D6868
:104F60000190BBE743794F2BDFD18379522BDCD102
:104F7000C379002BD9D1024D0193AFE7D4F70010CC
:104F8000CCF7001010B5040000F0FAF823002278E6
:104F9000203B472A05D08268002A20D18360012067
:104FA00010BD62784E2AF6D1A278552AF3D1E27864
:104FB000432AF0D12279432AEDD162792B2AEAD112
:104FC000A2792B2AE7D1E279012AE4D8DA69013201
:104FD000DA61012AE3D182689A618360DFE700F039
:104FE00045FCC04610B500F0CBF88368002B2ED0EE
:104FF00020229A5C472A04D00022826020331800C5
:1050000010BD263A9A5C4E2AF6D12C3A9A5C552A63
:10501000F2D1323A9A5C432AEED11F3A9A5C432A83
:10502000EAD11E3A9A5C2B2AE6D1053A9A5C2B2AE1
:10503000E2D1043A9A5C012ADED8DA69013ADA61EF
:10504000002ADBD19A69826000229A61D6E700F0DB
:105050000DFCC04670B5040000F092F822002378E1
:105060000568203A472B04D0002D2BD10260280080
:1050700070BD63784E2BF7D1A378552BF4D1E3782C
:10508000432BF1D12379432BEED163792B2BEBD139
:10509000A3792B2BE8D1E379012BE5D85369002BB9
:1050A0000DDB013353614368013B4360954201D0FE
:1050B000156102602000656A09F0DAFAD7E701217C
:1050C000CB1AEFE700F0D2FB10B500F055F80368FB
:1050D000002B09D020229A5C472A06D000222033D8
:1050E0000260180009F09CFA10BD263A9A5C4E2A1C
:1050F000F4D12C3A9A5C552AF0D1323A9A5C432A80
:10510000ECD11F3A9A5C432AE8D11E3A9A5C2B2ACA
:10511000E4D1053A9A5C2B2AE0D1043A9A5C012A40
:10512000DCD85A69002A08DB511E012A0CD04A1C1F
:1051300001D05961D8E700F099FB511C0132F8D138
:105140001A6902605961CFE71A69203302601800BA
:1051500009F066FAC8E7C0467047C0467047C046C7
:1051600000487047B8F7001010B504000421FFF79D
:1051700035F9200010BDC04600487047441B002090
:1051800000487047441B0020F8B5DE4645465746A8
:105190004E468B46E0B50500502825D00F2028400C
:1051A0000C2800D976E03C4C800020588746507887
:1051B0001678000294780643D0782404000634431D
:1051C0000443101D002C08D070262E40102E00D154
:1051D00093466DB25C44002D0CDB1C60F0BCBB46FA
:1051E000B246A946A046F8BD032103328A43100007
:1051F00010C8F2E72468F0E7507816780002947837
:105200000643D078240400063443044310000830D9
:10521000D8E75478107824020443901CD2E75478DD
:1052200016782402344324042414901CCAE77F21F6
:10523000904600240027894646463178701C4E4629
:105240000E40BE4034434EB280460737002EF3DB9B
:105250001F2FB7D84906B5D50126BE407642344344
:10526000B2E7002188467F311700002489463E00BE
:10527000317801378A464946564631404646B14064
:105280000C4307218C4651464EB23800E044002EB4
:10529000EDDB97E707F022FB6CF80010020010B579
:1052A0000800FF2A15D070231340302B17D004D8E4
:1052B000202B07D109F08CF903E0402B0BD109F02A
:1052C000DFF910BD202B02D86023134201D007F074
:1052D00005FB0020F5E70020502BF2D0F7E709F09E
:1052E000A7F9EEE7F8B505000E0014000020002D28
:1052F00002D0280009F0C4F92060771C3678FF2E10
:1053000029D160603B78781C2375FF2B33D01023A4
:10531000002500217F2623753200037801301A40D2
:105320008A405BB215430731002BF5DB4519E56078
:10533000002500227F260378013063753100037851
:105340000130194091405BB20D430732002BF5DB71
:1053500045192561F8BD29003000FFF79FFF3A008D
:105360000100231D3000FFF70FFF07003B78781C7A
:105370002375FF2BCBD10023E360D9E7F0B5DE46E0
:10538000454657464E460023E0B593B00893033395
:105390008B4690460340012B16D0022B0FD141467D
:1053A000584609F035F90924002800D108242000C6
:1053B00013B0F0BCBB46B246A946A046F0BD002BD8
:1053C00000D190E007F08AFA08231A000240034255
:1053D00000D19AE002231A4302920C910CAD0023F3
:1053E0000C2200214046009509F00AF9404609F0D8
:1053F0006FF903900028D2D02A0003994046FFF7A6
:1054000071FF41460600287DFFF748FF0BABA860FF
:105410000F2200939A4600210023404609F038F9F4
:1054200001220B9B9343013B99462B699E4263D219
:105430007F276C7D00212000FFF730FF3200010044
:1054400009AB2000FFF7A0FE6C7D060000212000C4
:10545000FFF724FF320001000AAB2000FFF794FEA3
:105460006C7D060000212000FFF718FF5346010065
:1054700032002000FFF788FE0024002103003A00DC
:105480001B7801301A408A405BB206001443073192
:10549000002BF3DB099A2B68944663444B4519D9DA
:1054A000029BDB072BD500230024049353460D22D7
:1054B0000093002100234046089D09F0E9F85B466F
:1054C0000B9A9C621A62039A0624DA62049A5D625D
:1054D0001A636CE70A9A944663444B456FD82B696C
:1054E0008342A6D8DCE7030700D558E701230CADBB
:1054F00002935B460C9372E7029B1A42D3D10823B6
:10550000029A134258D000F0B1F90CAD0C6A002396
:105510000D2200214046009509F0BAF80C9B9C42F0
:1055200002D002230293E4E75B460C220C93002195
:1055300000234046009509F063F85B461B6B04931B
:10554000002B39D05B469C6ADB6A03930BAB9A460F
:105550000326002C56DB5B460B93534600220021AA
:1055600000934046002309F04BF8534601220021E6
:105570000093404600230B9409F042F853460F2253
:10558000002100934046002309F082F801230B9A82
:1055900000211340049A404613430B9353460F22B5
:1055A0000093002309F02CF80724022E00D0FEE619
:1055B0005846FFF7E7FCFAE6584607F0EFF80B9B72
:1055C000002B00D1EBE66A68944663440493002CF8
:1055D00037D1002B00D1E2E6029BDB0700D5DEE6E7
:1055E0000823029A134200D122E100240226B2E7E6
:1055F000079B5446AB469846B2464D46029BDB0796
:1056000000D553E72A0003994046FFF76BFE414659
:10561000287DFFF743FEE343E9689B00A860C918B3
:105620000B68002B05D0002301339A008A58002A0A
:10563000FAD15A46936204230326D062136351635E
:1056400089E72A69631E9446049A6344002A00D1BC
:10565000A5E6002B00D1E0E00299082208001040E6
:1056600006900A4200D1CDE059463F320A70073217
:105670004A7007328A70123ACA7003320A710932CC
:105680004A7103328A710022CA7100220592424691
:105690007F27A9460792002400211A0010783A00BB
:1056A00002408A400133144342B21D000731002AF0
:1056B000F3DB1F2906D84022024203D03F3A8A403A
:1056C00052421443002600213A0018780133024068
:1056D0008A40164342B20731002AF5DB1F2906D85B
:1056E0004023034203D03F3B8B405B421E43002CD0
:1056F00011D013DC5B46002B02D0069B002B4AD056
:105700004A46E343D2689B009B58002B2CD0002EC6
:105710006DD0AB19BFE701230593F8E74B46187D21
:10572000FF2862D007230340022B5BD02DD9032B27
:105730002ED0042B00D045E6E20052424B46DB68F7
:1057400049469C46896853466244FFF71DFD0B9904
:10575000002909D05B46002BD9D00022584608AB5F
:10576000FFF7B0FB0028D2D0079B4D469846029B1E
:10577000DB0700D59AE6069B002B00D1E8E603265E
:10578000002C00DBE7E600F07DF8002B00D019E6E6
:10579000A2005242D2E7089B0F9A0B93E343904634
:1057A0009B00984443461968002943D05B46524603
:1057B000AB46A2461D004446B046160004E06168B0
:1057C0000434002900D113E73300002228006118B7
:1057D000FFF778FB0028F2D02B00B2465D46464624
:1057E0009B4694E762005242A8E70022A6E7079B87
:1057F0009846059B002B00D1D1E5029BDB0700D525
:10580000CDE5F2E65A46D1795832012901D0089205
:105810003BE7783A1268089237E7029BDB0700D52E
:10582000BDE5029A082314001C401A4200D0DCE6B1
:10583000022690E6079B4D469846DFE6FFF70AFCF6
:1058400061E6C04670B5804707F048F8FFF702FCF4
:1058500007F044F80D000400FFF736FC6B1C02D182
:10586000200006F0ABFFFFF727FBC046024B10B548
:105870001868FFF7E7FFC046B811002010B5804751
:10588000FFF7F4FF024B10B51868FFF7F7FFC046AB
:10589000B4110020014B18687047C046B8110020B1
:1058A000014B18687047C046B411002010B501289C
:1058B00012D80B00283B1A68501E1860012A00D02D
:1058C00010BDDB6858310C00002B01D00800984750
:1058D0002000FFF7C9FAF3E728394869FFF7B2FF5C
:1058E00070B505000026803DEA602E60A9600400C6
:1058F000FFF7D6FF2861FFF7CDFF23004722583B73
:1059000068611A7007325A7007329A702200432376
:10591000553A13705370183B9370D370024B513C3F
:10592000280026702B6370BDAD58001070B50400C0
:105930000D001600FFF724FC4368320001332900F4
:1059400043602000FFF7CCFF0123036028300400F0
:1059500008F0AEFE2000FFF77DFBFFF787FFC04693
:1059600010B5FFF70DFC4368046801334360002C59
:105970000CD02023E35C472B0AD0002303602034A3
:10598000200008F08DFE2000FFF764FBFFF76EFF9C
:10599000263BE35C4E2BF0D12C3BE35C552BECD14A
:1059A000323BE35C432BE8D11F3BE35C432BE4D168
:1059B0001E3BE35C2B2BE0D1053BE35C2B2BDCD1C6
:1059C000043BE35C012BD8D863695B426361D6E793
:1059D00010B50400034B0833036000F073FA200095
:1059E00010BDC046D4F8001010B50400054B0833B4
:1059F000036000F067FA20000C21FEF7EFFC2000A6
:105A000010BDC046D4F80010F0B583B01E00089B4E
:105A100005000F00140093420AD0A868089A036892
:105A200000921D6A220033003900A84703B0F0BD80
:105A3000310000F069F80028EFD00620F6E7C046F4
:105A4000F0B5C64600B50D0084B0190006009046BA
:105A50001F0000F059F8041E18D10A9B0C9A9342BB
:105A600031D00D9AB0682900036803920C9A029213
:105A70000B9A01920A9A0092DC6942463B00A047C9
:105A80000400200004B080BCB846F0BD0D9B0A9A0B
:105A90001A6042461A71002D0EDB0A9B00249C46B8
:105AA0000C9B65445D1B6B425D4105236D421D40AF
:105AB0000D9B01359D71E4E70024AB1CE1D101236E
:105AC0000D9A9371DDE730000B9900F01DF8002866
:105AD000C7D042460D9B5A71D3E7C046F8B50700C0
