:020000041000EA
:1000000000B5324B212058609868022188439860DF
:10001000D860186158612E4B002199600221596106
:100020000121F02299502B49196001219960352056
:1000300000F044F80222904214D00621196600F024
:1000400034F8196E01211966002018661A6600F04E
:100050002CF8196E196E196E052000F02FF8012189
:100060000842F9D1002199601B49196000215960AB
:100070001A491B48016001219960EB211966A021F2
:10008000196600F012F800219960164914480160C1
:100090000121996001BC002800D000471248134993
:1000A000086003C880F30888084703B5996A0420EC
:1000B0000142FBD001200142F8D103BD02B5186610
:1000C0001866FFF7F2FF186E186E02BD00000240BE
:1000D000000000180000070000035F00212200005C
:1000E000F4000018222000A00001001008ED00E03C
:1000F00000000000000000000000000074B24E7A12
:1001000000200420F7010010C3010010C5010010F9
:10011000C1010010C1010010C1010010C101001097
:10012000C1010010C1010010C1010010C701001081
:10013000C1010010C1010010C9010010CB01001065
:10014000CD010010CD010010CD010010CD01001037
:10015000CD010010CD010010CD010010CD01001027
:10016000CD010010CD010010CD010010CD01001017
:10017000CD010010CD010010CD010010CD01001007
:10018000CD010010CD010010CD010010CD010010F7
:10019000CD010010CD010010CD010010CD010010E7
:1001A000CD010010CD010010CD010010CD010010D7
:1001B000CD010010CD010010CD010010CD010010C7
:1001C00000BE00BE00BE00BE00BE00BE00F04BF888
:1001D000103800BEF2EB887158A300107CA3001009
:1001E0003402001090A31AE700202149086006C8D5
:1001F00081F3088810471F48006800282FD10DA4FC
:100200000ECC002902D000F012F8F9E71A491B4A77
:10021000002000E001C19142FCD1194988471949E9
:1002200088471949884700BEFDE701C901C29A42C3
:10023000FBD370477CA30010C00000202C050020D9
:10024000E8A700100000042000000420E8A7001028
:1002500000100420001004200000000070470B482C
:1002600004F0DEF80047EFF30580C0B270470000ED
:1002700008ED00E0000000D03005002058130020F9
:100280004D2D0010AD070010092D0010575600002D
:1002900006005250ABB36053D49A0010060052507F
:1002A000861C0302E49A0010060052505422A29DBC
:1002B000F89A001005005250DE65F468E8A70010B7
:1002C000F8B5C04610B5064C2378002B07D1054B76
:1002D000002B02D0044800E000BF0123237010BDB2
:1002E0003806002000000000D8880010044B10B52C
:1002F000002B03D00349044800E000BF10BDC046F6
:10030000000000003C060020D888001010B501282D
:1003100000D010BD034B9942FBD16821024800F088
:10032000A5FAF6E7FFFF00003C0B002070B58EB089
:10033000002304E0990005AA002088500133052B12
:10034000F8DD012510E02E2005F0ECF926E005A9E6
:1003500098005C000BAAA25E4458A4466244425036
:100360000133052BF3DD0135194B1C68AC421BDB57
:1003700036236B4402930DAB019332236B440093FD
:100380000CAB2E226A440BA9124800F087FAFA211E
:100390004900280004F070F80029D4D00E4800214C
:1003A00002F090F80023DCE700250CE0AE0005AB7E
:1003B000F258E00F001940101018210004F05CF80A
:1003C000064B98510135052DF0DD0EB070BDC046CD
:1003D000B40600203C0B00204E0C0000B8060020A4
:1003E00010B5384805F0D2F9374C200000F0A5FAD6
:1003F000364805F0CBF9200000F0C6FA00285CD0A2
:10040000334805F0C3F9334805F0F2F92E4C0621C4
:10041000200000F0EBFC0621200000F0A7FC2E4895
:1004200005F0E6F9200000F011FD0A2005F07AF948
:100430000121200000F0DAFC0121200000F096FCF0
:10044000264805F0D5F9200000F000FD0A2005F04F
:1004500069F90121200000F0C9FC0121200000F011
:1004600085FC1F4805F0C4F9200000F0EFFC0A20CD
:1004700005F058F90121200000F0B8FC012120000E
:1004800000F074FC174805F0B3F9200000F0DEFC22
:100490000A2005F047F90121200000F0A7FC012106
:1004A000200000F063FC104805F0A2F9200000F0E5
:1004B000CDFC0E4805F09CF910BD0D4805F066F91D
:1004C000A1E7C046D88800103C0B0020F48800103B
:1004D0001489001050890010748900108889001058
:1004E0009C890010B0890010C4890010D8890010C0
:1004F0003489001070B504000023C15E0E4D280041
:1005000000F04AFA0423E15E280000F054FA0823C0
:10051000E15E280000F05EFA0C23E15E280000F0A6
:1005200068FA1023E15E280000F06AFA1423E15E05
:10053000280000F06CFA70BD3C0B002030B583B091
:100540000C4805F023F900240DE0A0000A4BC35825
:100550000A4A82580A4941580A4D405900900A48AF
:1005600005F046F90134052CEFDD0A2005F0DAF834
:1005700003B030BD348A00109C06002054060020D1
:10058000840600206C060020688A001010B5010067
:10059000024B1860024805F02BF910BDB40600208C
:1005A000808A0010F0B587B02C4805F0EFF80125DF
:1005B000002643E02E00002300240BE08C18E00FFF
:1005C000001940109C006F46E0510A3291420FDC46
:1005D0002C000133052B0EDC9A002149515821488B
:1005E0001258501C8142E9DC990068460A50F0E735
:1005F0002C000026EDE76846FFF77CFFFFF796FE2C
:10060000002307E09A00684615581648155016480A
:1006100011500133052B0EDC9A001449515814482F
:1006200012589142EEDD9A00684615580C48155054
:1006300010481150EDE7FFF781FF2500002D0BD08A
:10064000002EB7D00C4B1A68FA239B009A42B2D105
:100650000A48FFF79BFFAEE707B0F0BDA48A001081
:1006600054060020840600209C060020B8060020C6
:10067000D00600206C060020B406002010270000E1
:1006800030B58DB02F4805F081F800244EE093007E
:100690002D49585806A958500132052A12DC9300FA
:1006A0002A4959582A4819502A481B589942EEDBC2
:1006B00093002549595828488446614406A8195092
:1006C0002500E9E72548FFF715FFFFF72FFE002279
:1006D00005E0930021495958684619500132052A0E
:1006E00013DC9300194959581D48195019481B58D3
:1006F0009942EEDC930019495958FA20800084464B
:100700006144684619502500E8E7FFF717FF00220B
:1007100009E0930006A958580B49585069465858A3
:100720000E4958500132052AF3DD2C00002C07D168
:100730000548FFF7DFFEFFF7F9FD00220125ACE7D2
:100740000DB030BDB48A001084060020B806002029
:100750009C060020D006002018FCFFFF5406002055
:100760006C06002010B5064805F010F8192000F0BE
:100770009DFDD0231B06802292045A6210BDC04604
:10078000C08A001070B50BE0D02424068025AD048B
:10079000A561FA3001F0C2FE6561FA2001F0BEFEEB
:1007A00005F0FEF90028EFD070BD000010B505F08F
:1007B0002BF81D491D4807F0CFFF0321042000F04E
:1007C00043FD0321052000F03FFD0022012104200C
:1007D00000F052FD00220121052000F04DFDFFF741
:1007E000C1FFFFF7CFFFFFF7FBFD002308E09A00F2
:1007F00000210F4811500F4811500F48115001337C
:10080000052BF4DD0A4B8022D2019A60FA20800089
:10081000FFF7BCFEFFF734FFFFF7C4FE074804F004
:10082000E7FF002010BDC046801A0600000500202A
:10083000D00600205406002084060020DC8A001028
:1008400010B502490120FFF761FD10BDFFFF000058
:1008500070B51D0004AB00241C5F431A601B584395
:10086000511A03F009FE401900B270BD01707047C3
:1008700000B583B000780091022304221B2100F010
:1008800079FC03B000BD00B583B00078009102236D
:1008900004221C2100F06EFC03B000BDF0B583B053
:1008A00004000F0016001D00431C0078144A126853
:1008B00000920E223B2100F01DFB62781202A37809
:1008C00013433B80E2781202237913433380627929
:1008D0001202A37913432B80627A1202A37A134384
:1008E000089A1380E27A1202237B1343099A138039
:1008F000627B1202A37B13430A9A138003B0F0BDFC
:100900002004002010B50078012302226A2100F0A3
:100910000BFC10BD10B50B00007806226B2100F017
:1009200003FC10BD00B583B00078009103230222C0
:100930006B2100F01FFC03B000BD10B504000121C5
:10094000FFF7F0FF00212000FFF792FF00212000B9
:10095000FFF799FF00212000FFF7DCFF10BD00002A
:1009600010B582B00400431C0078064A1268019258
:10097000009306230622752100F015FB607802B073
:1009800010BDC0462004002010B5FFF7E9FF343841
:1009900043425841C0B210BD70B505000C00FFF7CE
:1009A000DFFF372805D80621A2B2287800F042FCE4
:1009B00070BD7721F8E770B505000C00FFF7D0FF98
:1009C000372805D80821A2B2287800F033FC70BD82
:1009D0007A21F8E770B505000C00FFF7C1FF372852
:1009E00005D80A21A2B2287800F024FC70BD7D2130
:1009F000F8E710B58AB20078132100F01BFC10BD97
:100A000010B58AB20078152100F014FC10BD10B5A5
:100A10008AB20078172100F00DFC10BD10B50078E7
:100A2000012303226A2100F07FFB10BDF0B5DE46F2
:100A300057464E464546E0B593B002908946079228
:100A400008931CAB1B780B933B2909D0132303930A
:100A5000113B06933E2004F065FE0024039D15E043
:100A6000FFF77EFF372804D977230393743B06935F
:100A7000F0E706230393043B0693EBE78121C905C6
:100A800004F02BFCA3000DAAD0500134022C24DC6E
:100A90001E260AAB9C466644069961436918C9B292
:100AA000029B1878AA4B1B6800933300012200F0C8
:100AB00097FA0023F65E300004F018FC132DDDD009
:100AC00001231E40630010AA9E528221C90504F032
:100AD00004FCA3000DAAD050D7E700230A9321E11C
:100AE000022E43D18D21C90504F0D7FB3EE00499C5
:100AF00004F0D8FBFA21890504F0EFFB04F052FC66
:100B000004F07EF803F0DCFF1E230AAA9446634437
:100B100018804146069B5943039B9C466144C9B2D9
:100B2000029B18781E230AAA94466344012200F00F
:100B30004DFB0136022E67DCF3B298461E240AAB49
:100B40009C466444434659004944C9B2029B187804
:100B50007F4B1B6800932300012200F041FA002321
:100B6000E05E04F0C3FB4B463B2BB9D080231B0651
:100B7000C41804F0DDFBC317C01858408344211C7F
:100B8000079804F0AAFB0490201C04F00BFC714AA7
:100B9000714B03F00CFF04000D00089804F002FCF8
:100BA00002000B002000290003F001FF04000D00EB
:100BB0000DAFB3009A46D85904F0F4FB22002B0085
:100BC00003F0CEFE03F0ACFF5346D851039B132B2A
:100BD0008DD0049904F066FBF821890504F07DFBB3
:100BE00004F0E0FB04F00CF803F06AFF00B21E22F0
:100BF0000AAB9C466244108001239843730010A9FD
:100C00005B5E1843108084E7059B632B29D0584610
:100C100003F03AFF4B463B2B2DD000224F4B03F005
:100C2000C6FE00224E4B03F005FF002803D0099BAF
:100C300001331BB209935B46632B05D8059B0A2B36
:100C400002DD099B092B19DC012001F067FC059BE3
:100C500001330593059B632B10DC002600239B4684
:100C600068E7FA239B009B45D1D92A2004F05AFD5E
:100C700000230593CBE73B4A3B4BD0E72E2004F003
:100C800051FDFD218905079804F027FB0790FD2100
:100C90008905089804F021FB08900024039D1FE0BB
:100CA000A3000DAA9858FA21890504F016FB04F058
:100CB00079FB03F0A5FF03F003FF1E230AAA944665
:100CC00063441880069961436918C9B2029B187879
:100CD0001E230AAA94466344012200F077FA0134E5
:100CE000022C1CDC132DDBD0A3000DAA9858F82190
:100CF000890504F0F2FA04F055FB03F081FF03F0DC
:100D0000DFFE00B21E220AAB9C4662441080012323
:100D10009843630010A95B5E18431080D2E70A9BDA
:100D200001330A930B9B0A9A934203DD0023059338
:100D300009938FE7029C2000FFF7E4FD2000FFF7F6
:100D40006DFE13B0F0BCBB46B246A946A046F0BD4E
:100D500020040020FCA9F1D24D62503F0000F03F7A
:100D6000000014409A9999999999A93FF0B5C646FF
:100D700000B582B080460C0008B200230093143303
:100D800005220121FFF764FD6423181A03F080FE99
:100D9000114A124B03F00BFE03F0C2FE051C04F0D7
:100DA00001FB0F4A0F4B03F002FE06000F000E4935
:100DB000281C04F092FA051C3000390003F0B0FE44
:100DC000021C00942B1C43214046FFF72FFE02B06B
:100DD00080BCB846F0BDC0467B14AE47E17A843F84
:100DE000333333333333D33F0000B442F0B583B0F1
:100DF00006000C0008B200230093143305220121E1
:100E0000FFF726FD6423181A03F042FE0B4A0C4B31
:100E100003F0CDFD03F084FE051C0A4904F05DFAE1
:100E2000071C0949281C04F058FA031C00943A1CBA
:100E30003B213000FFF7FAFD03B0F0BD7B14AE4755
:100E4000E17A843F9A99993E0000A04130B585B07F
:100E50000500FFF785FD372829D82878214B1B6826
:100E6000009302AB0322062100F0BAF81E4804F0FA
:100E70008DFC02AC0023E15E0223E25E0420235ECF
:100E80001A4804F0B5FC2878164B1B680093230021
:100E90000322132100F0A4F80023E15E0223E25EA6
:100EA0000420235E124804F0A3FC05B030BD28786E
:100EB0000C4C2368009302AB0122772100F090F8DC
:100EC0002878236800930A236B4401227A2100F0DA
:100ED00087F828782368009303AB01227D2100F076
:100EE0007FF8C3E720040020048B0010208B001043
:100EF000408B0010F0B5D6464F464646C0B586B08A
:100F00008046924699460E9C17226A44117001232E
:100F1000009301001B4807F04BFC6601361BB6002E
:100F20003619F400002501F0B1FB06000F1E1CDB92
:100F3000A4197D41A94202D804D1A04202D90124BA
:100F40006442E517002D16DB0294039500230093FD
:100F500053464A4641460B4807F036FC40B206B0BD
:100F6000E0BCBA46B146A846F0BD074B074A3F2150
:100F7000074801F0CDFE044B044A3F21044801F02C
:100F8000C7FEC04600050020608B00107C8B00105F
:100F9000B48B001000B583B0009313000122FFF75B
:100FA000A9FF03B000BD30B583B014001D00079B3E
:100FB0006A460732FFF7EEFF00280ED00123AB4050
:100FC000013B641B0134A3406A46D1790B40D371C5
:100FD0002341DBB2D371069A137003B030BD000019
:100FE000F0B5DE4657464646C0B588B004AF8346E6
:100FF00098463C6BF973150053009A460733DB089B
:10100000DB006A46D31A9D4604AE012300930F22EB
:10101000BA180100284807F0CBFB63011B1B9B009B
:101020001B190021002239607A60DB003B6000233D
:101030007B6001F02BFB02000B1E1FDBB8600C0075
:10104000386879688018594102000B008C4203D837
:1010500005D1B968914202D901225242D317002B1F
:1010600012DB029203930023009353463200594649
:10107000114807F0A9FB40B2002314E00F4B104ABF
:101080003F21104801F044FE0C4B0D4A3F210D4812
:1010900001F03EFE5A00B45C2402511C715C2143F5
:1010A0004446A15201339D42F4DCBD4604B0E0BC8D
:1010B000BB46B246A846F0BD00050020608B00107C
:1010C0007C8B0010B48B0010F0B583B002AF844667
:1010D000100016000832D208D2006C46A21A9546BB
:1010E00002AA1170002403E0250001345D5D15554E
:1010F000B442F9DB431C002100916146044807F02B
:1011000057FBC0B2431E9841C0B2BD4601B0F0BD0E
:101110000005002000B583B06B4607331A7001222A
:10112000FFF7D2FF03B000BDF0B583B004000D009F
:1011300016001F000E4B1B686A460732FFF72AFF96
:10114000002F0ED00123B3406A46073212781A43AB
:10115000D2B26B46DA7129002000FFF7DBFF03B043
:10116000F0BD0123B3406A46073212789A43F0E794
:1011700020040020F0B585B005000E0001921C008F
:101180000AAB1F78104B1B6802A9CA1D3100FFF77C
:1011900001FF002802D1002005B0F0BD0123A340CB
:1011A000013B019A141B0134A340A740FAB21A4034
:1011B00002A9CF799F43CF713A43CA713100280009
:1011C000FFF7A8FFE8E7C04620040020F0B5C646B8
:1011D00000B582B002AF844610005200D2B2013294
:1011E000D2B290460732D208D2006C46A21A954677
:1011F00002AA11700025012408E06E009E5B310AEE
:101200001155611C56540234E4B201358542F4DBB9
:101210000023009343466146054807F0C9FAC0B26F
:10122000431E9841C0B2BD4680BCB846F0BDC04622
:101230000005002000B583B06B4606331A800122FA
:10124000FFF7C4FF03B000BD10B58300084A944601
:1012500063441C6840226240C02414408022520132
:1012600013431C60C000034B9C466044416010BDAA
:1012700004C001400040014080000B4B9C4660448C
:1012800000290DD00823002A0CD004221343026841
:1012900053400C22134080225201104303607047D8
:1012A0000023F0E70022F1E704C0014010B501235C
:1012B0008340D0221206936293610521FFF7C4FF99
:1012C00010BD0000EFF3108072B6034B1B68002BBB
:1012D000FBD0BFF35F8F70472C0100D0BFF35F8F4F
:1012E000024B00221A6080F3108870472C0100D056
:1012F000F8B506000C001500FFF7E4FFE308F71847
:10130000F15C07222240012393400B4205D1DBB25E
:101310000B433B70FFF7E2FFF8BD2100280001F00E
:1013200091FDF0B583B00600019114001F00FFF796
:10133000C9FF00E00134BC420CD8E308F518F35CA7
:101340000721214001228A401A42F3D1D2B21A4326
:101350002A7001E001246442FFF7C0FF002C02DB89
:10136000200003B0F0BD019B002BF9D0089801F0DC
:1013700069FD0000034B1B6802201840431E984182
:10138000C0B2704700C00640002307E0054A9A1823
:101390009200BFF35F8F0021116001331F2BF5D93D
:1013A0007047C04640000034054A1078431CDBB249
:1013B0001370172B02D9130010221A707047C04601
:1013C0002404002000B583B00100044B00931F23C8
:1013D00018220348FFF7A5FF03B000BD008C0010E2
:1013E0005C0C0020074B9B68103080001950BFF345
:1013F0005F8FBFF35F8F044B0021196082F3108869
:101400007047C04600ED00E0240100D010B5091A75
:10141000081F0A4B9C466144094A914208D8C307F9
:1014200006D440104005400D064B184380B210BD55
:10143000054B064A9921064801F06AFCFC070000AA
:10144000FE0F000000E0FFFF1C8C0010808E0010DB
:101450004C8C001010B5091A04394C08090B08D13E
:101460004905490D064A11430180064B2343438039
:1014700010BD054B054AA121054801F049FCC046B5
:1014800000F0FFFF00F8FFFF908C0010548E00105A
:101490004C8C001001238340034A10681840431EFF
:1014A0009841C0B27047C04600E100E0002904D076
:1014B000034B1860034B18607047034B1860FBE741
:1014C00080E200E000E100E080E100E010B50123EF
:1014D00083401800FFF7EAFF10BD0000012383409E
:1014E000014A13607047C04600E200E0024B9B686F
:1014F00010308000C058704700ED00E010B5FFF7D5
:10150000F5FF002805D0054BC01A2F2803D801206D
:1015100010BD0020FCE70020FAE7C04628040020A8
:1015200070B504000D00EFF3108672B60C4B1B680B
:10153000002BFBD0BFF35F8F2000FFF7D7FF094BD5
:10154000984201D0A84205D1320029002000FFF7BF
:1015500049FF70BD044B054A7C21054801F0D8FBCA
:10156000240100D0CD010010A08C0010B48E00101A
:101570004C8C0010F0B5DE4657464E464546E0B569
:1015800089B0814601911500EFF3108A72B6744B51
:101590001B68002BFBD0BFF35F8F724B0027DF5718
:1015A000002F40DB7C00E419A4006F4824180622B9
:1015B000A2566C4B1A706D4B9A684B4610339B00C9
:1015C000D35898461E001B1A2F2B38D9684B9845C4
:1015D0002FD105AE674B33807B009B46D819800026
:1015E000614B9846404402306349FFF70FFF70801B
:1015F000624BB380FF23B371F571019B07935F4486
:10160000BF0047440ECE0EC701231C43A0465246DE
:1016100041464846FFF7E6FE09B0F0BCBB46B2467D
:10162000A946A046F0BD564B564ACD21564801F07A
:101630006FFB564B534AD421534801F069FBC0431A
:1016400040440C2102F040FF002912D101239E43A7
:10165000B34633000026DA79AA4211D90621595639
:1016600000290CDB4A00521892001E003E4B9B18CA
:10167000F1E7474B434AE021434801F049FB1E0094
:10168000002E3BD005AB434A1A80813A5A8006238C
:10169000F3560293002B18DABD20000205AB9B46DF
:1016A0009880029A9A71DD71019A0792301D21008B
:1016B000FFF7ACFEB080B7717B00DB199B002A4FAF
:1016C000FF185B4607CB07C7A1E77800C019800069
:1016D000254BC0180430321DB388D90A1C2907D104
:1016E0005B055915023149005118FFF78FFED5E708
:1016F000294B2A4AA721244801F00AFB05AE1D4BBD
:1017000033807B000293D8198000174A904602006C
:1017100042440392901C1849FFF778FE7080039AA8
:10172000101D5946FFF772FEB0801D4B5A464146C8
:10173000521A524153431B0DB371F571019A07922E
:10174000029B9C466744BF0047440ECE0EC7114B18
:101750005A461380813B538001231C43A04656E721
:10176000240100D0521300202804002000ED00E0E6
:10177000CD01001000A1FFFF5804002000BDFFFFB5
:10178000D88C00109C8E00104C8C0010008D001026
:10179000288D0010014800009C8D00108C8E0010D8
:1017A000AAAA0000F0B5CE46474680B583B0060031
:1017B0000D00EFF3108872B6564B1B68002BFBD060
:1017C000BFF35F8F544B9A6834001034A300D7588E
:1017D000524B9F4207D0AF4200D199E00197504B46
:1017E000FB1A2F2B09D9424639003000FFF7FAFDCA
:1017F00003B0C0BCB946B046F0BD3000FFF74AFEAA
:10180000814600213000FFF761FEBFF35F8FFEF7D6
:101810002AFD002801D0844211D10123019C9C4360
:101820000022A368AB4212D00622A256002A0DDB8A
:1018300053009B189B002200394CE418F1E72C213F
:10184000384B394AFF31394801F062FA2200AB4285
:1018500057D106256557002D39DB6B005B199A00BF
:101860002F4B9B189A68A260DA79E27106229A5689
:10187000A2719B795BB2002B10DABD200002A08020
:101880006B005B199B00264AD318294A117899717D
:10189000157049463000FFF719FEA4E7201D6B00C4
:1018A0005B199B001E4A9B181A1D9B88D90A1C298C
:1018B00007D15B055B15023359005118FFF7A6FDF0
:1018C000DDE71C4B1C4AA721184801F021FA00282B
:1018D00012D1002A0ED0FF239371184B9380144A23
:1018E0001378A371164B0E49641A644163431B0DB0
:1018F0001370CEE7094FF2E7201D1249FFF7AAFD4A
:10190000C7E76021104B084AFF31084801F000FA90
:10191000024F68E7240100D000ED00E0CD01001087
:1019200028040020B48D00106C8E00104C8C001028
:10193000521300209C8D00108C8E001000BDFFFF04
:10194000AAAA000062040020D88D001070B504001F
:10195000012606432D4BF31A2F2B28D8FEF783FCC4
:1019600000282BD0EFF3108C72B6294B1B68002B8C
:10197000FBD0BFF35F8F274D22002449521A5241FA
:1019800055432D0D6DB2244B9B6880001B58B3420C
:101990001BD00022032A32D853009B189B001B49FE
:1019A000CB189B795BB2AB421FD00132F2E7C22168
:1019B0001A4B1B4A49001B4801F0AAF988211A4B0F
:1019C000174AFF31174801F0A3F9134B9B68174AD8
:1019D0001A50174B1A78A2711D70BFF35F8F0C4B12
:1019E00000221A608CF3108870BD0800530099180B
:1019F00089004118FF268E710E4A8A80E9E7CC21C2
:101A00000D4B074A4900074801F082F928040020DD
:101A1000240100D0AAAA000000ED00E0E08D001033
:101A2000388E00104C8C0010088E0010CD01001074
:101A30005213002000BDFFFF148E00100022044B43
:101A400002E0044902C30132072AFAD97047C046AE
:101A500000E400E08080808000B583B00100D023E6
:101A60001B061B680648C018064B0093052300227E
:101A7000FFF757FC002801DB1F23181A03B000BD35
:101A80004C1300201C8E0010024B9C4661448900C0
:101A9000016070474000003470B505000C0008007C
:101AA00000F0E8FD200000F0CDFE0849200000F025
:101AB0000DFEFFF779FC064B9C4660448000686091
:101AC0002C75A400034BE55070BDC046DD1D001011
:101AD00040000034001100200A4B1A68EFF3108117
:101AE00072B61368002BFCD0BFF35F8F054B1B68E9
:101AF000BFF35F8F00221A6081F3108840BF00207F
:101B0000002170471C13002010B5002922D0036863
:101B10001B7B99421ED8174B9C4661440901836880
:101B20009C4661440C684968002A19D003681B7BF5
:101B30009A4215D883680F488446624412019A1865
:101B400010685368020001208B4201D80ED000209B
:101B5000C0B210BD084B094A3B21094801F0D8F832
:101B6000054B064A3B21064801F0D2F8A242EFD8C5
:101B7000EDE7C046FFFFFF0F248F00108891001093
:101B8000E48E001010B500291ED0037B99421BD8AB
:101B90004B005B18033B0468A4466344002919D03A
:101BA000002A1DD0914221D0002A25D0047BA242D8
:101BB00022D80468500080180338201881701978E2
:101BC00000291FD11A7010BD104B114A682111480D
:101BD00001F09EF8104B114A6F310E4801F098F851
:101BE0000F4B0E4A70210B4801F092F80D4B0B4A37
:101BF0007121084801F08CF8044B054A682105481A
:101C000001F086F841701A70DDE7C046588F001069
:101C1000F4910010748F0010C48F0010D091001048
:101C2000D08F0010DC8F001070B506000D0014007E
:101C3000002914D0002A14D08068736898470028BF
:101C400006D0220029003000FFF79CFF280007E0A3
:101C50002A0021003000FFF795FF200000E010006F
:101C600070BD0800FCE70000F0B583B005000092ED
:101C700001930AAB1C780BAB1F78002C26D00368AD
:101C80005A7B944207D10123002B19D1002C3BD160
:101C9000200003B0F0BD002C0CD01A7B944209D870
:101CA0001A6863001B19033BD3189B78002BEBD0F9
:101CB0000123E9E73E4B3F4A68213F4801F028F8FD
:101CC0003E4B3F4A65213F4801F022F803689C7B68
:101CD000002CDBD012D01A7B94420FD8620012196C
:101CE000033A19688C46624451789973002900D1EF
:101CF000D9730023937053701370C7E72C4B2D4A90
:101D000068212D4801F004F8002C3AD02B681B7B89
:101D10009C4236D82C4BE3181B01AA6894466344B6
:101D2000009A1A60019A5A60089A9A60099ADA60D1
:101D30002E68002C2BD030D0337B9C422DD86300F2
:101D40001B19033B32689446634400229A705A7010
:101D50001A70717B22003000FFF766FF70738442B7
:101D600000D095E7287D009A019B00F0F7FC061E45
:101D700001D0002F17D00C9B002B00D188E71E70DC
:101D800086E7124B124A3B210E4800F0C1FF114B6F
:101D9000114AA521084800F0BBFF054B054A682100
:101DA000054800F0B5FF2868210000F0FFFEE2E7DB
:101DB000588F0010F4910010748F0010F48F0010F1
:101DC00000920010E48E0010FFFFFF0F248F001020
:101DD00088910010E08E0010E4910010F0B5DE460E
:101DE00057464E464546E0B58BB009900023089310
:101DF0008200B24BD658370032E0B14BB14A3F2196
:101E0000B14800F085FFB14BB14A3B21B14800F029
:101E10007FFFB14BB14A8C21AE4800F079FFB04B47
:101E2000AE4A9021AB4800F073FFA84BAD4A402169
:101E3000A84800F06DFF2A686B68099800F08EFCD6
:101E400000239A4698467B68BFF35F8F00221A6092
:101E500086F310884346002B51D1002800D126E19B
:101E600000F014FC02000B1EC7DB002000210690CE
:101E700007917868EFF3108672B601680029FCD0EC
:101E8000BFF35F8F396888464C7B002C32D0BAD0C4
:101E9000097B8C42B7D8944965182D01B9688C46E6
:101EA000654428686968801A99410029C3DC01D11A
:101EB0000028C0D10021404600F06EFEA042A8D10B
:101EC0002A686B6806920793AB689846EB689A4657
:101ED0004346002BA3D0002CA7D03B681B7B9C4221
:101EE000A3D8631EFA68D35C08931B0218433861B9
:101EF0000020A8E700239A4698460020A3E7089B05
:101F00001B022343994651461800C04705000E00A6
:101F10007A68EFF3108B72B6136859424B41D9B20D
:101F2000002BF9D1BFF35F8F002E26DB002E52DD90
:101F30003B69002B53D04B4572D100F0A7FB020048
:101F40000B1E73DB0100180052197341984202D82E
:101F500004D1914202D901225242D317002B6BDBEC
:101F600000210491013103910294514601914146AF
:101F700000913800FFF778FE49E03B69002BD5D08F
:101F80004B451CD1069A079B10001900521BB34108
:101F9000994202D804D1904202D901225242D31769
:101FA000002B12DB00210491013103910294514670
:101FB0000191414600913800FFF756FE27E04B4B58
:101FC000464A9F21434800F0A3FE3D4B3D4A3F2136
:101FD0003D4800F09DFE002E01D1002DA8D13A68A9
:101FE000002C45D0537B9C422CD1012100293FD1AC
:101FF000D37B002B42D1D473002C52D03B681B7B87
:102000009C424ED8FA68013C135D013313550023FE
:102010003B617A68BFF35F8F13608BF310881FE713
:10202000324B2E4AA2212B4800F072FE244B254A47
:102030003F21254800F06CFE214B224A3F212248D7
:1020400000F066FE002C0DD0137B9C420AD8630082
:102050001B19033B1068844663449B78002BC5D052
:102060000121C3E7224B234A6821234800F050FE98
:10207000224B234AF621204800F04AFE002B0AD0CA
:10208000117B8B4207D85900CB18033B11688C4653
:1020900063445C70AFE7164B164A6821164800F09F
:1020A00037FE0A4B0F4A40210A4800F031FE0BB0C0
:1020B000F0BCBB46B246A946A046F0BD00110020C8
:1020C000608B001054910010B48B0010248F00100E
:1020D00088910010E48E00101C9000106C9100108C
:1020E00034900010AC910010FFFFFF0F40900010E3
:1020F000588F0010F4910010748F00107C90001025
:10210000C091001010B50A4B5B68002B04D00A2167
:102110000848FFF7B9FC10BD054C2300064A102102
:10212000206800F059FC03212000FFF7B5FCEEE722
:10213000700400201C130020091B001010B5064B72
:102140005B68002B01D0044810BD044B044A5C219D
:10215000044800F0DDFDC04670040020A09000108F
:1021600094910010E48E0010F0B5DE4657464E46BE
:102170004546E0B58BB0804616001F00149B9A467A
:10218000159B994616AB1B789B461F2302AA9446C3
:10219000634400221A7032E0002809D042461268D7
:1021A000127B904204D8421E4146C9688A5C48E0CE
:1021B000434B444A4021444800F0AAFD0798002BB5
:1021C00075D05B46002B72D04946D04704000D0005
:1021D00003000B4300D171E0002946DB00F056FA02
:1021E00006000F1E55DB36196F41B94202D804D1E3
:1021F000B04202D901267642F717002F4FDB434643
:102200005A68EFF3108472B6136859424B41D9B241
:102210000791002BF8D1BFF35F8F1F3302AA9446BA
:10222000634404930023039302934B460193534664
:10223000009332003B004046FFF716FD031EABD172
:10224000020041464968BFF35F8F00250D6084F3AB
:102250001088002B29D01F2302A98C4663441B78C9
:10226000002BABD112021043A9E732003B00361B12
:10227000AF41BB4202D804D1B24202D90126764214
:10228000F717002FBBDA114B114A3F21114800F01C
:102290003FFD0E4B0E4A3F210E4800F039FD0B4B1F
:1022A0000B4A3F210B4800F033FD012040420BB0A8
:1022B000F0BCBB46B246A946A046F0BD0798F6E77B
:1022C000248F0010AC910010E48E0010608B001081
:1022D00054910010B48B0010F8B504004268EFF37D
:1022E000108572B6136858424341D8B2002BF9D119
:1022F000BFF35F8FCBB22268567BB3421BD1012064
:10230000002848D0206988422BD0090AC9B2002B86
:102310002ED02068007B83422AD8581EE668305CA5
:1023200088422BD000206368BFF35F8F00221A60C1
:1023300085F31088F8BD002B0DD0167BB3420AD868
:102340005E00F618033E1768BC466644B678002E59
:10235000D6D00120D4E7134B134A6821134800F06C
:10236000D7FC8521124B134A4900134800F0D0FCDA
:10237000124B134A4021104800F0CAFC190010000B
:1023800000F014FC0028CED112210E4B094AFF3177
:10239000094800F0BDFC23698B42C4D100232361AE
:1023A000C1E7C046588F0010F4910010748F0010E0
:1023B000C49000103C910010E48E0010248F001097
:1023C000AC910010E8900010F0B587B006000F0047
:1023D000FDF749FF00281FD106246442E517A41920
:1023E0007D41BD4202D803D1B44201D90024002569
:1023F000002D14DB0494059500F048F902000B1E33
:1024000013DBA41A9D41002D17DC14D030003900D5
:1024100000F048F907B0F0BD234800F013FD234B4E
:10242000234A3F21234800F073FC204B204A3F21E0
:10243000204800F06DFC002CE8D0FFF77FFE002361
:10244000029301931C4B0093049A059BFFF78CFEAB
:10245000002818DADAE7002300E00023002BD5D1AA
:10246000164B1A68EFF3108172B61368002BFCD07C
:10247000BFF35F8F114B1B68BFF35F8F00221A60A1
:1024800081F3108820BF0499059A0D4B5B6A9A422C
:10249000E3D80B48806A884203D29A42DBD00123FA
:1024A000DCE70123DAE7C046EC900010608B0010F7
:1024B00054910010B48B0010D91A00101C13002086
:1024C00000400540F8B504000D0000F0DFF8020000
:1024D0000B1E10DB20002900801859418B4202D8C6
:1024E00004D1824202D901204042C117002908DBF1
:1024F000FFF76AFFF8BD064B064A3F21064800F089
:1025000007FC034B034A3F21034800F001FCC0468F
:10251000608B001054910010B48B001010B5FA229B
:1025200092000023002102F09BFEFFF7CBFF10BDBD
:1025300070B584B006000C00FFF700FE0023029384
:102540000193194B009332002300FFF70DFE051E87
:1025500011DD20BFFFF7F2FD2900FFF7BDFE134B91
:102560005B6A9C421BD8114A926AB2421AD29C42C0
:1025700013D0012014E00D4B5B6A9C4209D80B4A32
:10258000926AB24207D29C4201D0012008E00020AA
:1025900006E0002004E0012002E0002000E000202E
:1025A00004B070BD0120FBE7D91A001000400540BF
:1025B000026843680849496A8B4209D80648806A1C
:1025C000904207D28B4201D0012002E0002000E0BF
:1025D000002070470120FCE7004005400260436096
:1025E00000487047B125001070B5EFF305833F2018
:1025F00018401038EFF3108C72B6194B1B68002B83
:10260000FBD0BFF35F8F012319008140154A51634E
:10261000154A12781400C440234214D0114B5C6A4E
:102620008300124D5B599C4206D38300104C1B590A
:102630008A430D490A7007E00A4A031D9B00995816
:102640009950002300E00023BFF35F8F044A00216C
:1026500011608CF31088002B00D0984770BDC046E5
:10266000280100D000400540561300202813002008
:102670004C0B002010B50100024A0348FEF738FE5B
:1026800010BDC0461892001051130020044B5B6A25
:10269000034A906A1900536A9942F9D17047C046BB
:1026A00000400540084B5B6A01E0074B5B6A8B42C8
:1026B000FBD301E0044B5B6A8B4203D1024B9B6A64
:1026C0008342F7D37047C0460040054070B5040010
:1026D0000D00EFF3108672B61B4B1B68002BFBD06E
:1026E000BFF35F8F002D1CD02000FEF7FFFE174BBD
:1026F00083420BD019002000FEF712FF01212000B9
:10270000FEF7E4FE0123A340114A1360A400114B1D
:10271000E550BFF35F8F0C4B00221A6086F31088E0
:1027200070BDA2000B4B0021D1500122A2400A49EA
:102730000B7893430B7005492000FFF733F8002115
:102740002000FEF7C3FEE4E7280100D0E9250010D1
:10275000386005404C0B002056130020F0B5DE46D3
:1027600000B584B00400150001921E000293FFF72B
:102770008DFF03958E4202D84ED185424CD9EFF39E
:10278000108B72B6274B1B68002BFBD0BFF35F8FFB
:10279000254A17780125A540EBB23B431370234B24
:1027A0005D63221D92000199D150A2002049029838
:1027B00050501B6A2B4212D11C4B1B6C2B4208D071
:1027C0000020BFF35F8F174B00221A608BF3108835
:1027D00023E0184B184AC121184800F099FAFFF776
:1027E00055FF8E4214D802D1039B834210D80E4B62
:1027F0001B78BB420ED00D4B1D625D631F20044051
:102800000123A3400E4A1360074B1F701E38D8E700
:102810000020D6E70120D4E7012004B080BCBB46ED
:10282000F0BDC046280100D05613002000400540EE
:10283000281300203C920010A89200106092001013
:1028400080E200E0EFF3108C72B60B4B1B68002B9C
:10285000FBD0BFF35F8F01238340084A136208490E
:102860000A789A430A70BFF35F8F034B00221A6005
:102870008CF310887047C046280100D00040054006
:102880005613002010B500291ED0037B99421BD897
:102890004B005B18033B0468A4466344002919D02D
:1028A000002A1DD0914221D0002A25D0047BA242CB
:1028B00022D80468500080180338201881701978D5
:1028C00000291FD11A7010BD104B114A6821114800
:1028D00000F01EFA104B114A6F310E4800F018FA42
:1028E0000F4B0E4A70210B4800F012FA0D4B0B4AA9
:1028F0007121084800F00CFA044B054A682105488C
:1029000000F006FA41701A70DDE7C046588F0010DB
:10291000B8930010748F0010C48F0010A49300109F
:10292000D08F0010DC8F001070B506000D00140071
:10293000002914D0002A14D08068736898470028B2
:1029400006D0220029003000FFF79CFF280007E096
:102950002A0021003000FFF795FF200000E0100062
:1029600070BD0800FCE7000010B50023437301337D
:102970008373037BC3730123027B9A4214D9002B18
:102980000CD0027B934209D85A00D218033A01684E
:102990008C4662440133DBB25370EDE70B4B0C4ABB
:1029A00068210C4800F0B4F9002A09D0924207D8F7
:1029B000016853009A18033A8A180023537010BD17
:1029C000024B034A6821034800F0A2F9588F001017
:1029D000B8930010748F001010B5017342608360CB
:1029E000FFF7C2FF10BD000070B50400081E00D143
:1029F00070BD002934D0237B994231D84B005B183D
:102A0000033B2268944663445A78002AF0D02DD0C4
:102A1000237B9A422AD853009B18033B21688C469B
:102A200063445D7800215970002825D0237B9842AB
:102A300022D843001B18033B21688C4663440021C5
:102A4000597001002000FFF76FFF060029002000E9
:102A5000FFF7CAFF020031002000FFF765FFC7E75C
:102A6000084B094A6821094800F052F9054B064A0B
:102A70006821064800F04CF9024B034A68210348DC
:102A800000F046F9588F0010B8930010748F0010B2
:102A900070B505000C001600002928D02DD0037B4E
:102AA00099422AD84B005B18033B02689446634462
:102AB0005A78002A27D19A78002A2AD11978FFF764
:102AC00093FF0300002E03D0EA7B002A27D1EC738A
:102AD000002B37D1002C49D02B7B9C4246D82B6849
:102AE00061000C19033C1C190023637070BD224B5C
:102AF000224A3821224800F00BF9224B224A682151
:102B0000224800F005F9224B1C4A3A211C4800F0EB
:102B1000FFF8204B194A3B21194800F0F9F8002A28
:102B20000AD0297B8A4207D851008A18033A2968BB
:102B30008C4662445470CAE7124B134A682113480A
:102B400000F0E6F8002B0BD02A7B934208D8430014
:102B50001B18033B2A689446634400229A70B9E725
:102B6000084B094A6821094800F0D2F8054B064A8B
:102B70006821064800F0CCF8C49200109093001031
:102B8000CC920010588F0010B8930010748F001072
:102B90000C9300103493001070B504000A00457BBC
:102BA0002900FFF775FF6073280070BD70B5040041
:102BB000002967D0437B8B420ED0002911D0037BC4
:102BC00099420ED84B005B18033B0268D0188378FB
:102BD000002B0CD1002056E00121FFF7DDFF012082
:102BE00051E0294B294A6821294800F091F8002B2F
:102BF00020D0227B93421DD85A00D318033B226871
:102C0000D2182568EB5C8B421AD0002B1BD0227B9C
:102C1000934218D85A00D318033B2268D21853782D
:102C20008B4216D0002BF0D11A4B1B4A67211B4850
:102C300000F06EF8144B154A6821154800F068F84A
:102C40004378137007E0104B104A6821104800F0D9
:102C50005FF8437853700023837043700122200093
:102C6000FFF716FF0200617B814205D02000FFF7CD
:102C70005BFE6073012006E0094B074A6D2107489F
:102C800000F046F8002070BD588F0010B893001077
:102C9000748F0010148E001078930010CC920010E6
:102CA0005893001010B50400FEF77EFB01002000D1
:102CB000FEF7EAFEFF232371BFF35F8F10BD10B54F
:102CC0000400FEF771FB01002000FEF7DDFEFF238C
:102CD000237100236371BFF35F8F10BD034B9C46CC
:102CE000614489000160BFF35F8F7047400000348A
:102CF00010B504000120FEF765FB01002000FFF77E
:102D0000EDFF10BD00BEFDE710B5FFF7FBFF0000B3
:102D100010B582B00C001900002A0CD0084B002A14
:102D20000BD00192009323000200064802F060FDE0
:102D30000120FFF7E7FF044BF1E7034AF1E7C04644
:102D400094940010A49400107C8A001070B52B4B52
:102D50002B4A1A602B4B2C4A1A602C4B9A682A4B30
:102D60009343FAD12A4C01E008CC9847294B9C4266
:102D7000FAD300F001F9234B274A1A60234B9B68D2
:102D8000DB43DB01FAD1254B40229A675A671A6769
:102D9000DA66234C09E0234B234A83212348FFF7BB
:102DA000B7FF2000FFF77EFF0834214B9C4209D279
:102DB0002368002BF5D0012BEDD12000FFF77FFF1A
:102DC0000834F2E71B4CA1681B4DC022280002F01A
:102DD000BDFBA560FDF747FA002800D000BEFEF756
:102DE000D3FAFEF72BFEFFF78DF9144C01E008CC67
:102DF0009847134B9C42FAD370BDC04600E0004098
:102E0000BFCDFBFE00F00040FE7F3C0000C0004054
:102E10001005002020050020FFFFFF0100F0014009
:102E200008050020D49400104C950010F494001074
:102E30001005002000ED00E000000020200500202B
:102E40002C0500200FB400B583B0084802F09EFCAA
:102E5000049B002B07D005A90191180002F0A6FCE5
:102E6000034802F093FC0120FFF74CFF3C95001053
:102E70005C8B0010F8B5DE4657464E464546E0B539
:102E800005000F0092460A9A93424ED31A0E9146BD
:102E90001E020A9A00233000494601F057FB804683
:102EA0006C006419A4002F4B9C4664446368834201
:102EB00000D260602B1FDBB29B46012B3BD9C023A5
:102EC0009B012343802212011A60AB00264A9958C5
:102ED000002905D0506901F0F7FA01300138FDD121
:102EE00053465A0123685A40E0231A4080235B016D
:102EF00023431A605A46012A28D980239B01234381
:102F0000802212011A60434663604246002330006B
:102F1000494601F01BFBAD00134B58510120F0BC9A
:102F2000BB46B246A946A046F8BD104B104A2D211B
:102F30001048FFF7EDFE012FC1D1C0239B012343B1
:102F400003221A60A368DB07FCD5C9E72168794032
:102F500003220A401A60A2680123BB401342FAD040
:102F6000CBE7C04600800040600C00205C9500105C
:102F7000BC9500107095001030B583B00C2000F0A7
:102F800021F9FEF7F7F900280DD0002304E099009D
:102F90002D4A2E4888500133092BF8D92A4B2C4A48
:102FA0005A6203B030BD2B4B00229A6700F07CF9C7
:102FB000294B01221A60274B5B6C012BFBD1274B5D
:102FC00003221A60234B9B6B012BFBD1013300932F
:102FD0000433234A0121234800F054F805230093C9
:102FE000214A0121214800F04DF8214B0093002295
:102FF00002210420FFF73EFF1E4D00952B0000220A
:1030000001210520FFF736FF104C00942300002219
:1030100000210720FFF72EFF00942300002200214B
:103020000820FFF727FF0A4B00932300002200210E
:103030000920FFF71FFF00952B000022002106202A
:10304000FFF718FFADE7C046600C0020006CDC0203
:103050001BB70000008000403CB0004030B0004092
:10306000002F685900800240008C864700C0024053
:10307000001BB700405973078000014BC0587047D0
:10308000600C0020F0B5C64600B504000F00904665
:103090001D000C2001F018FA06003D4A42443D4B49
:1030A0009A4243D843011B1A9901C91AC900091849
:1030B0008901404601F008FA0200103A98235B00AB
:1030C0009A4239D86B1E062B3CD8069B013B062B37
:1030D00038D8069B9D423BD343461A09B2423DD3A2
:1030E0002D04069B1E0335432368002B3CDB2A4B33
:1030F0009C424AD080225201284B1A60284B1A6009
:10310000284B9B6811009943FAD12760A060231DCA
:10311000C02292011A43212313602368002BFCDA9A
:10312000E5600823136080BCB846F0BD1E4B1F4A03
:1031300011211F48FFF7ECFD1E4B1C4A19211C48AA
:10314000FFF7E6FD1C4B194A1C211948FFF7E0FD6B
:103150001A4B164A22211648FFF7DAFD184B134A7C
:1031600025211348FFF7D4FD22683F231340BB42BB
:10317000BDD1A3681B051B0D8342B8D1E368EE22C5
:10318000D2021340AB42B2D1CDE780229201B3E725
:1031900080E84BD380F8A93200C0024000E0004034
:1031A00000F0004000C00040CC9500100C970010CB
:1031B0002C960010709600108C960010D896001077
:1031C000F096001080239B000343014AD3627047AE
:1031D00000800540024B1A68024B5A607047C04697
:1031E000F81000200080054010B50200164B80202A
:1031F000C0051860154B1648186000290AD0154BF9
:10320000E021C9041960002A09D1124B802212065C
:103210001A6010BD0C4BE021C9041960F3E753019B
:103220009B1A9800801800010B4B186080235B04E8
:10323000984202D3084B094A1A60FFF7CBFF054BAF
:103240008022D2051A60E4E700B005400820014062
:10325000FCFF010000A00540F8100020FFFFFF0068
:1032600010B5030010000C4A8024E4051460002B04
:103270000DD001221343094A094CD461094C5C402A
:103280001462516293620021FFF7AEFF10BD034B41
:103290000022DA61F7E7C04600B005400080054033
:1032A000D3C007B02D3FF84F064BAA2212011A6077
:1032B0002F22DA60044B054A1A60024B5B68002B30
:1032C000FBDA7047004002400060024000B0FA00A4
:1032D000704710B5002802D00B684968984710BDA8
:1032E0000100002007E083001B185B00501C0860F1
:1032F0001078C01830380A681378303BDBB2092BDD
:10330000F1D97047F0B5DE4657464E464546E0B522
:1033100083B093461F000C9B9A460D9C0E9B9946CA
:103320000F9B9B0703D0B8460F00060022E00192D6
:10333000A34688464E46B9460700B44207D2551CFC
:103340004B4641462020B84701342A00F5E73D00AE
:103350004F465C46019B9B46B1464646B846370001
:103360002E0007E0013C551C5346185D43463900CA
:10337000B0472A00002CF5D135003E0047460F9B90
:103380009B0707D4100003B0F0BCBB46B246A94669
:10339000A046F0BDB0464E46B9462F005D46531BD1
:1033A000B342EFD2541C4B4641462020B84722007E
:1033B000F5E7F0B5CE46474680B585B094469846C9
:1033C0000C9D0D9C0EAB1B789946109A119B129E7A
:1033D000B7071CD4002B0CD0F7070AD54F46002F97
:1033E00002D10C37374204D0013B02E030272F5581
:1033F0000134944201D21F2CF8D9F70707D59C421B
:1034000005D21F2C03D830272F550134F5E7F706D6
:1034100015D5770505D4002C03D0944224D09C42C6
:1034200022D00F9A102A2BD00F9A102A30D00F9A40
:10343000022A35D01F2C02D830222A5501341F2CE5
:1034400005D84A46002A31D02D222A550134039648
:1034500002930194009543466246FFF753FF05B07F
:10346000C0BCB946B046F0BD621E012C06D00F9F0D
:10347000102F01D01400D4E7023CD2E71400D0E7AB
:10348000B206D1D41F2CCFD878222A550134D1E7E7
:10349000B206CCD51F2CCAD858222A550134C9E708
:1034A0001F2CC7D860322A550134C3E7720703D5F1
:1034B0002B222A550134CAE73207C8D520222A55C3
:1034C0000134C4E7F0B5DE4657464E464546E0B502
:1034D00093B081468A46089209931CAB10CB1B78A7
:1034E0009B461E9D219B9846002C03D110234246EB
:1034F0009A4390468023DB0046461E4042461A42CD
:1035000012D0002C22D000260EE03033D9B2771C26
:103510000AAB99552900200000F0D6FFAC4216D323
:103520001F2F14D83E0004002900200000F0CCFF1B
:10353000CBB2092BE9D94246920605D54121C918DB
:10354000C9B20A39C9B2E2E76121F8E72700434668
:103550000693209B05931F9B049303955B46029360
:1035600001970AAB0093099B089A51464846FFF71A
:1035700020FF13B0F0BCBB46B246A946A046F0BD42
:10358000F0B5DE4657464E464546E0B595B0089044
:1035900009910A920B931E9E1F9C20AB1B789B46A1
:1035A000229B9946239D269B9A463300234303D1B1
:1035B000103352469A4392468023DB0057461F4001
:1035C00052461A4219D0330023432DD0002714E06D
:1035D0003033DAB27B1C98460CABDA554A462B00E6
:1035E0003000210000F0B2FFA5421FD819D0434699
:1035F0001F2B1BD8474606000C004A462B00300004
:10360000210000F0A3FFD3B2092BE1D95246920664
:1036100005D54122D218D2B20A3AD2B2DAE76122F3
:10362000F8E7B145E3D901E00023984653460693F5
:10363000259B0593249B04934B4603935B4602937F
:10364000434601930CAB00930B9B0A9A0999089887
:10365000FFF7AFFE15B0F0BCBB46B246A946A04688
:10366000F0BD0000F0B5DE4657464E464546E0B593
:1036700091B083468A460C9298461A9C08941B9DEA
:10368000099522002B002000290001F0EEF9002806
:1036900000D0E5E001225242D74B2000290001F082
:1036A000DFF9002800D0DBE001225242D34B20009A
:1036B000290001F0BFF9002800D0D1E0002200234A
:1036C000089E3000099D290001F0B4F9002800D0BF
:1036D000DDE008980999069007918023DB001E9A87
:1036E0001A400D921E9A1A4201D106231C93069885
:1036F000079904000D000A000600024300D1D1E042
:10370000080D4005400DBE4CA44660440A03120B50
:10371000BC4B13431F0001F0BBF9BB4ABB4B01F08C
:1037200046F9BB4ABB4B01F01BF904000D00002217
:10373000B94B3000390001F00AF9B84AB84B01F032
:1037400036F902000B002000290001F009F901F010
:10375000B7F9814601F09CF904000D00B14AB24B63
:1037600001F025F90022B14B01F0FAF801F0A8F9B7
:103770000600AF4AAF4B2000290001F018F9040001
:103780000D00300001F084F9AB4AAC4B01F00FF9A9
:1037900002000B002000290001F0D9F804000D0000
:1037A00002000B0001F003F90A900B91A44BF318EF
:1037B00000261F0522002B002000290001F0D0F870
:1037C0000E900F9122002B0000208021C90501F0EE
:1037D000BEF804000D0000229A4B0A980B9901F0E4
:1037E000C8F80022984B01F0BBF802000B000A98C1
:1037F0000B9901F0BEF80022944B01F0B1F80200E1
:103800000B000A980B9901F0B4F802000B0020009D
:10381000290001F0A5F802000B000E980F9901F0A5
:10382000A8F80022774B01F09BF832003B0001F032
:10383000BEF806000F0004000D00069A079B01F079
:103840000FF9002830D001235B429C46E14400225E
:103850007D4B3000390001F08CF804000D0023E0AE
:103860001E9B04931D9B03931C9B0293089A099B28
:103870000092019343460C9A5146584600F0FCF8DA
:1038800011B0F0BCBB46B246A946A046F0BD00232D
:10389000002406930794069680231B069C466544E5
:1038A00007951AE7002399464B466333C62B1ED86B
:1038B00004261E9B1B0526D52B0023430FD0644AEC
:1038C000644B0698079901F0C3F8002879D00022CC
:1038D000614B0698079901F0ADF8002871D01C9B48
:1038E0004B4506DD4A46981A431E1C9303E0052605
:1038F000DFE700231C938023DB001E9A1A431E92ED
:103900000026002399461D9B9E4264D29F1B0223E2
:103910001E9A1A400A921E9A134202D0002E00D01C
:1039200000274B46002B07D022002B000698079952
:1039300001F01FF8069007910022002308980999CA
:1039400001F078F8002848D1444B1E9A13400493A4
:1039500003971C9B0293069B079C0093019443468C
:103960000C9A5146584600F087F8002E00D187E7A0
:103970001E9B9B063DD54525441C434602005146EF
:103980002800D8474B46DA179B185340052205926A
:10399000013E0496002203920A3202924A46D00F58
:1039A000019000934346220051465846FFF78AFD96
:1039B0000A9B002B00D163E702005F460C9E1D9D11
:1039C00054E01C9B002B9ED00D9B002B9BD01C9B7E
:1039D000013B1C9397E7002799E7069C079D22006F
:1039E000290080200006844661440B00069207935C
:1039F000AAE76525C0E7C046FFFFEF7FFFFFEFFFA7
:103A000001FCFFFF0000F03FFB799F501344D33FC0
:103A1000B3C8608B288AC63F0000F83F61436F63DC
:103A2000A787D23F71A379094F930A400000E03F76
:103A30001655B5BBB16B0240EF39FAFE422EE63F98
:103A4000FF03000000002C4000002440000018404C
:103A50002D431CEBE2361A3F80842E41FFF7FFFF17
:103A6000541C434651462020B8472200931BAB42CA
:103A7000F6D3100004E7C046F0B5DE4657464E4682
:103A80004546E0B595B00690079193469946209F2C
:103A90001E9A1F9B1000190000F0E7FF002831D18B
:103AA00001225242BF4B1E981F9900F0C3FF00280D
:103AB00037D101225242BC4B1E981F9900F0D0FF13
:103AC00000283DD10022B94B1E981F9900F0C8FF75
:103AD000002850D10022B64B1E981F9900F0AAFF73
:103AE000002848D1002200231E981F9900F0A2FF51
:103AF000002850D100239846229B5B0500D4B6E0F5
:103B0000002458E0229B0393219B029303230193FB
:103B1000A84B00934B465A4607990698FFF7F2FBCD
:103B20000EE1229B0393219B029304230193A24B5A
:103B300000934B465A4607990698FFF7E3FBFFE0D0
:103B40000423229A1A4022990B4210D09B4B002A40
:103B50000FD004222299039121990291019200939E
:103B60004B465A4607990698FFF7CCFBE8E0944B82
:103B7000EDE70322EEE7229B0493219B0393029738
:103B80001E9B1F9C009301944B465A46079906982A
:103B9000FFF768FDD4E01E9A1F9B0020002100F073
:103BA000D6FE1E901F9101239846A5E70CAB30224C
:103BB0001A55013F01341F2C01D8092FF6D81E9841
:103BC0001F9900F07DFF050000F062FF02000B006E
:103BD0001E981F9900F0BBFEFA007A4B9B181A68DA
:103BE0005B680A920B9300F0E2FE0890099100F0E6
:103BF0008BFF060000F048FF02000B0008980999AF
:103C000000F0A5FE0890099100226F4B00F028FFFC
:103C100000282ED00136300000F036FF02000B00E5
:103C20000A980B9900F00CFF002801D001350026FE
:103C3000002F2CD1280000F02BFF02000B001E9853
:103C40001F9900F084FE06000F0000225E4B00F07A
:103C5000F1FE002846D100225B4B3000390000F015
:103C6000FFFE00283ED1EB073CD501353AE00627A0
:103C700046E70022544B0898099900F0DBFE002823
:103C8000D6D1002E01D0F307D2D50136D0E7AA460F
:103C90001F2C11D8013F0A21300000F015FC651CD3
:103CA00030310CAB19550A21300000F00DFC092E03
:103CB0000ED906002C00EBE755461F2C0CD87B1EB6
:103CC000002F09D00CAA302111551F000134F4E750
:103CD0002B0055461C00F0E71F2C03D80CAB2E22FE
:103CE0001A5501341F2C10D80A21280000F0C4FBFB
:103CF000661C30310CAB19550A21280000F0BCFBC2
:103D0000051E01D03400EDE734000323229A13404E
:103D1000012B1CD01F2C06D84346002B32D00CABF5
:103D20002D221A550134229B0393219B0293019467
:103D30000CAB00934B465A4607990698FFF7E2FAF8
:103D400015B0F0BCBB46B246A946A046F0BD219BCB
:103D5000002B13D04346002B02D10C3313420FD05B
:103D6000219B013B2193190003E00CAB30221A5533
:103D700001348C42CED21F2CF7D9CBE72199F8E73A
:103D80002199F6E7229B5B0704D50CAB2B221A5531
:103D90000134C8E7229B1B07C5D50CAB20221A555E
:103DA0000134C0E7FFFFEFFFFFFFEF7F65CDCD419F
:103DB00065CDCDC124970010289700101C970010E6
:103DC00018970010109900100000E03FF0B5DE4693
:103DD00057464E464546E0B593B082468B469046E0
:103DE0001193002900D1EBE200275546119B18786A
:103DF000002800D1E7E2252809D07C1C43463A0080
:103E00005946A847119B013311932700EEE7013370
:103E100011930024119A11780B00203BD8B210287E
:103E200003D88300D048C3589F460B00303BDBB219
:103E3000092B2CD92A292FD000230A93119B1A78F9
:103E40002E2A39D000239A46119A1378683BD9B2AA
:103E5000122976D88B00C549CB589F4601231C43B5
:103E600001321192D6E702231C4301321192D1E7AD
:103E700004231C4301321192CCE708231C43013276
:103E80001192C7E710231C4301321192C2E711A817
:103E9000FFF726FA0A90D1E71C9B1A1D1C9218689E
:103EA000002804DB0A90119B01331193C6E702231B
:103EB0001C4343420A93F6E78022D20014435A1C63
:103EC00011925A781300303BDBB2092B04D92A2A0D
:103ED00007D000239A46B7E711A8FFF701FA8246F8
:103EE000B2E71C9B1A1D1C921868002804DB82464E
:103EF000119B01331193A7E70020F8E780235B00B3
:103F00002343511C119152786C2A01D01C0018E0F7
:103F1000C0239B001C430131119112E080232343F5
:103F2000511C11915278682A01D01C0009E0C0236D
:103F30001C430131119104E080235B001C430132DA
:103F40001192119B18780300253BDAB2532A00D94D
:103F50002CE29300864AD3589F4680239B001C4343
:103F600001321192EDE780235B001C430132119274
:103F7000E7E7782809D0582838D06F2838D0622849
:103F800038D010239C430A2600E01026582833D04E
:103F9000692803D0642801D00C229443630501D51D
:103FA0000122944369282AD0642828D0A30500D58B
:103FB0009FE0E30500D5B8E0630600D4CAE01C9A90
:103FC000111D1C911168FF220A4005940A9B04935D
:103FD00053460393029600230193009243463A000E
:103FE00059462800FFF76EFA070027E01026CDE7B4
:103FF0000826CBE70226C9E720221443C8E7A30519
:1040000020D4E30550D4630666D51C9A111D1C917B
:104010001168FF220A40D317D118594005940A9B12
:104020000493534603930296D20F019200914346A4
:104030003A0059462800FFF745FA0700119B013363
:104040001193D3E61C9BDA1D07218A431100083126
:104050001C91116853689C46DB170C930D930C9AC6
:104060000D9B100048400E90624653400F930E98EF
:104070000F990C9A0D9B801A99410E900F910894FC
:104080000A9B0793534606930496002305936346C1
:10409000DA0F02920090019143463A0059462800F7
:1040A000FFF76EFA0700C9E71C9A111D1C911268F0
:1040B000D317D118594005940A9B04935346039390
:1040C0000296D20F0192009143463A0059462800C9
:1040D000FFF7F8F90700B1E7230605D51C9A111D73
:1040E0001C910023D25E96E71C9A111D1C91126848
:1040F00091E71C9BDA1D07218A43110008311C91AE
:1041000008940A9B0793534606930496002305934D
:104110000293136854680093019443463A00594649
:104120002800FFF72DFA070088E71C9A111D1C9143
:1041300005940A9B0493534603930296002301932C
:104140001368009343463A0059462800FFF7BAF92E
:10415000070073E723060DD51C9A111D1C911268E8
:104160001204120C31E7C04630970010749700100B
:10417000C09700101C9A111D1C91126825E7462853
:104180001AD01C9B0733072293431A0008321C9253
:1041900004940A9A0392524602925C681B68009348
:1041A000019443463A0059462800FFF765FC070092
:1041B000119B0133119319E620231C43E1E7672883
:1041C00001D0472802D180231B011C43452801D080
:1041D000472801D120231C431C9B0733072293430C
:1041E0001A0008321C9204940A9A039252460292D0
:1041F0005C681B680093019443463A0059462800C6
:10420000FFF730FA0700119B01331193EEE502230B
:104210001A002240924623421FD001241C9B1A1DE3
:104220001C927A1C9146187843463A005946A84792
:104230005346002B16D1119B013311934F46D5E500
:10424000561C434659462020B847230032005C1CC8
:104250009D42F5D83D001700E0E701233A002F000A
:104260000A9DF4E74A46A9460A9D06E0571C4346C4
:1042700059462020C84734003A00661CA542F5D8AC
:104280004D469146D7E71C9B1A1D1C921B68994608
:104290005346002B00D1013B4E4601E0013613008E
:1042A0003278002A02D05A1E002BF7D14B46F21A60
:1042B00010928023DB0026001E401C4203D0524592
:1042C00001D95346109302231A0022400B92234235
:1042D00005D03A0037004C46A946554620E03A0042
:1042E000109B5F46B3462E0006E0551C434639003E
:1042F0002020B04723002A005C1C0A999942F4D878
:1043000035005E46BB46109437004C46A9465546DC
:1043100006E01D000134561C43465946C84732008A
:104320002078002804D0002FF4D06B1E002DF0D18F
:1043300017004D460B9B002B03D1119B01331193AA
:1043400054E50A9F109B06E0561C43465946202020
:10435000A847230032005C1C9F42F5D81700ECE709
:1043600021231C431C9B1A1D1C921B68009305945F
:1043700008230493534603931023029300230193CD
:1043800043463A0059462800FFF79CF80700119B66
:10439000013311932AE57C1C43463A0059462520F7
:1043A000A847119B0133119327001FE57C1C43464E
:1043B0003A005946A847119B01331193270015E590
:1043C0000A4B9A4610E5AA46474502D343465A1E71
:1043D00000E03A00434659460020D047380013B069
:1043E000F0BCBB46B246A946A046F0BDD132001093
:1043F00000B585B0029003910121009313004A4259
:1044000002A90248FFF7E2FC05B000BDD33200105C
:1044100001480421014B1847A0040020414400102A
:1044200010B5010018231B8814221088984710BD6E
:1044300010B5010018231B8816221088984710BD5C
:10444000F0B5C64600B507000E00002501239846CA
:1044500000E00135B5420AD2AC003C192068FFF7F4
:10446000DFFF20600028F4D100239846F1E74046A2
:1044700080BCB846F0BD0000124A936F9B0815D26D
:104480009066D166002905D0FFE7FFE7FFE7516F8F
:10449000106F704704B580210906C21751400028EB
:1044A00000D0C84304F0F8F9002104BDF0B5146E43
:1044B000556E576F166FFFF7E3FF14665566576723
:1044C0001667F0BD000000D0114A936F9B0813D20D
:1044D00010665166002905D0FFE7FFE7FFE7516F3F
:1044E000106F704704B5002801D00020C04304F0CD
:1044F000D3F9002104BDC046F0B5146E556E576F58
:10450000166FFFF7E5FF1466556657671667F0BD2F
:10451000000000D094464E4A926F9208624601D243
:1045200030E0C046F0B54A4EB56F6D08FCD3346E2E
:10453000756E776F366F00F025F89446444A14661E
:104540005566576716676246F0BDC0469446404AB6
:10455000926F9208624601D258E0C046F0B53C4ED8
:10456000B56F6D08FCD3346E756E776F366F00F0E3
:104570004DF89446364A1466556657671667624684
:10458000F0BDC046002B24DB11D000293EDA00B577
:10459000C943404200D1013100F038F8C9434042DC
:1045A00000D10131DB43524200D1013300BD002A6A
:1045B000EBD1002801D1002905D00020C90FC9077F
:1045C00001D1C043410800B504F05EF90022002388
:1045D00000BD00B500290ADBDB43524200D10133A4
:1045E00000F014F8C943404200D1013100BDC94375
:1045F000404200D10131DB43524200D1013300F08F
:1046000005F8DB43524200D1013300BD002923D11C
:10461000002B18D1002A0CD0BC460D4F38667A66A4
:1046200000210023FFE7FFE7FFE77A6F386F674657
:104630007047002801D00748010000B504F024F9B4
:104640000022002300BD02000B0000200021704763
:10465000000000D0FFFFFFFF002B00D0BFE0130CD5
:1046600028D1002AE7D080B4114F39667A66FFE777
:10467000FFE730B4040C7B6F396F1B0423433B66A8
:104680007A66FFE7FFE7FFE7C04684B27B6F3D6FC6
:104690001B0423433B667A66FFE7FFE7C04600231F
:1046A0002C042D0C7A6F386F00196941B0BC70472B
:1046B000000000D0F0B594460025140E01D112027E
:1046C0000835140F01D112010435940F01D1920065
:1046D0000235D40F01D152000135D40B0134254FDE
:1046E0007C66254C3C660E0C93B2FFE7FFE7FFE7C4
:1046F0003C6F6643360C7703BE467343DF0B5B04A7
:10470000C01AB941130C7343DB18C91ACE086643AB
:10471000360CB64493B273431F0F1B01C01AB94144
:10472000130C73431F0B1B05C01AB941860D8F0272
:104730003E436643360C092D24DB520A7243801A2D
:104740007703460A6643360C16235B1BDE40DF40C8
:10475000BF1964466643821B704604350633010068
:10476000D940A840C01900D30131A24206D200238B
:10477000F0BD0000000000D0FFFFFFFF121B013062
:10478000F3D3F1E709277F1BFE406446A2B27243D0
:10479000801A00D20139220C7243130C1204821ABF
:1047A00099410B007046043513370100F940A840C9
:1047B000801900D30131002B02D1A2420AD2F0BDF0
:1047C000013000D30131121BFAD2013BF8D1A242D1
:1047D00000D2F0BD013000D30131121BF7E7F0B574
:1047E0001C0C00D080E00CB400251C0A04D11B0274
:1047F000160E3343120208351C0B04D11B01160F91
:104800003343120104359C0B04D19B00960F3343B4
:1048100092000235DC0B02D192185B4101351C007D
:10482000971864410134464F7C66464C3C660E0C3A
:10483000FFE7FFE7FFE7C0463C6F6643360C7703B0
:10484000BE4697B27743C01B00D20139C01B00D2CD
:1048500001399FB27743C91BC91B170C77437E04EC
:10486000FF0B801BB941CE086643360C0C2D33DBA1
:10487000B644120B1F053A431B0B97B27743C01B7C
:1048800000D201399FB27743C91B170C77433E040E
:104890003F0C801BB941860D8F023E43664329279A
:1048A0007F1BFE400C3D7746AF40BF1930BCA2B223
:1048B000ABB272437343801A9941220C7243130CBA
:1048C0001204801A994102000B000137001BA94114
:1048D000F9D2781E0021F0BD0C277F1BFE407746E1
:1048E0007F0BAF40FF19E0E700245D1C07D0144F99
:1048F0007D663966FFE7FFE7FFE7FFE73C6F95B2AC
:104900009EB265436643401BB141150C1E0C6543C6
:10491000664336042F0C3E432D04401BB14199429F
:1049200004D202000B0020000021F0BD01D1904212
:10493000F7D3801A994101349942F2D3F6E7000087
:10494000000000D0FFFFFFFF48404140484018B43E
:104950001B4B5B68FC46019308BD04DFD74C00107D
:1049600018B4174B1B68FC46019308BD00DFE14CEF
:1049700000109446134A926F920809D2624618B406
:104980000F4BDB68FC46019308BD0CDF994F00100C
:104990000C4AF0B5146E556E576F166F6246FFF7EE
:1049A000EEFF084A1466556657671667F0BD18B4DF
:1049B000034B9B68FC46019308BD08DF3D4E001089
:1049C00018110020000000D0FFB550404240504078
:1049D00059404B40594000E0FFB5154F4C00640D65
:1049E00003D0BC4204D10C0314D80020090D0905E2
:1049F0005C00640D03D0BC4204D11C030AD8002221
:104A00001B0D1B0501264B4009D44B4003D58B429F
:104A100000D18242FFBD9942FCD19042FFBD0B43C1
:104A2000DB1803431343F5D0C9434918FFBD000009
:104A3000FF07000000B5FFF7CFFF804100BDC04673
:104A400000B5FFF7C9FF01D9002000BD012000BD5E
:104A500000B5FFF7B9FF01D9002000BD012000BD5E
:104A600000B5FFF7B1FF804100BD012040054A00BD
:104A7000121804D85A00121801D8002070470120DB
:104A800070470020704700000021002805D17047C2
:104A9000C1174840401AFAD0C90713B5064B1B6826
:104AA00098470CBC441CA2401005120B0349091B7B
:104AB00009051943114310BD181200201F040000FE
:104AC00010B54C00620D8023D218DB00D21A5B05B2
:104AD0007E2A10DD9E3A13DACC17090349081943E0
:104AE0005242D140640001341532202A05DAD04008
:104AF0000843604310BD002010BD0846604310BD50
:104B0000C80FC018013810BD18B4044B5B6AFC46CE
:104B1000019308BD24DF4951001000001811002046
:104B200018B4044BDB6FFC46019308BD7CDFC95110
:104B3000001000001811002070B513231C78012C00
:104B400014D0012C14DC022C02DC1F4A1F4B9A6487
:104B50001F48FFF765FC1F4B186070BD99001A488D
:104B60001A4A885001331F2BF8D9EAE70023FAE7E5
:104B70001948FFF75DFC05001848FFF759FC02389B
:104B800003789B007F2B19DD802229000F4800F05D
:104B9000DDFC022CD7D1124B1A88B5231B029A4296
:104BA00009D1104B1A88104B9A4204D10F4B1A8826
:104BB0000F4B9A42C7D00020FEF744F90D4B0E4A26
:104BC00032210E48FEF7A4F89D4C00101811002069
:104BD0004C330000181200205344000053460000DC
:104BE00054380000D8380000494600009C380000C6
:104BF0005946000060990010109A0010C0990010EA
:104C000070B50B0D5B055B0D224A944663445A1C3C
:104C100026DB5A1C2AD03422D21A002A1FDD332464
:104C2000E41A20235B42E51827D40126AE40330066
:104C30000125A5402A0012184B4120214942651840
:104C400021D40226AE4031000225A54028000025CF
:104C500044428D411600264030002B40190070BDA3
:104C60000022C90FCB0710001900F8E7CB0FDB07B4
:104C70000020094A1A431100F1E720252D1B0126C7
:104C8000EE403300D4E720252D1B0226EE403100F4
:104C9000DAE7C04601FCFFFF0000F03F07B56046C1
:104CA000002800D100BE01880A0A0230DF2AFAD1AA
:104CB000C9B2820804D3028840880004104300E08F
:104CC0000068024A5050039007BD000018110020F0
:104CD0000FB403BC0CBCF0B50124E407634000E052
:104CE000F0B50C0DCF0F661E3605891B640503D386
:104CF000C943404200D30131640D03D0661CF60A5B
:104D000007D0E41B00207F00791C89078912803CB2
:104D100024031D0DDF0F6E1E36059B1B6D0503D38F
:104D2000DB43524200D301336D0D03D06E1CF60AF3
:104D300007D0ED1B00227F007B1C9B079B12803D50
:104D40002D032F1B661B58D4A446202E46DA20378D
:104D50001400BC401D00BD40F24033412A4380187E
:104D60005941CB0F05D0C943C04300226442504192
:104D7000514162464D0D28D10D0D07D100281FD09D
:104D8000241940414941013A0D0DF9D0640006D380
:104D9000013000D30131002C01D140084000013A1C
:104DA0000BD4941CE40A04D112051144DB07194406
:104DB000F0BDD907204B194300E0D9070020F0BD12
:104DC0000029DDD1002CDBD1F0BD0132C60740083F
:104DD000CD0728434908002EE1D0D9E73C2E29DA37
:104DE000203E40371400BC4000D00124F240144360
:104DF0001A00BB401C43D317ACE7AC46202F08DA9F
:104E000020360400B4400D00B540F8403941284335
:104E1000A5E73C2F0CDA203F40360400B44000D018
:104E20000124F84004430800B1400C43C117EAE7ED
:104E300010001900002494E70000F07FF0B50C0D7D
:104E4000661E3605891BE60A6405640D02D0651CE2
:104E5000ED0A04D0002001210905803C2403A4466A
:104E60001C0D671E3F05DB1BE70A6405640D02D0BD
:104E7000651CED0A04D0002201231B05803C24039D
:104E80007740644497B484B296B27443070C7E436F
:104E9000150C6F4380B26843361802D3012000041A
:104EA0003F183004350C00197D41844688B29AB20F
:104EB00050430C0C62431F0C7C438EB27E4392190C
:104EC00002D301263604A4191604170C36186741BC
:104ED00001BC81B29AB25143040C62431B0C5C4387
:104EE00080B25843121802D3012000042418100481
:104EF000130C401863412D185E410020474106BC49
:104F000088B293B258430C0C6343120C544389B2D9
:104F100051435B1802D301210904641819041A0CC7
:104F2000091862416D1856410020474118BCF9022A
:104F3000720D1143F0026A0D1043ED020A0D03D108
:104F40006D1940414941013B124E9B1B7600B34213
:104F50000ED26D0007D301300026714166463543FD
:104F600001D1400840001B05C918E4072144F0BDE9
:104F70000BDA013306D1013004D101314F0D01D0DC
:104F80004908F2E7E1070020F0BD013631050020B5
:104F9000EBE70000FF030000F0B51C0D671E3F05A6
:104FA000DB1BE70A6405640D02D0661CF60A04D018
:104FB000002201231B05803C2403D0252D0600265A
:104FC000F6432E661E096E66CE0FF619B4464900EA
:104FD0004F0D02D07E1CF60A03D000200021403F76
:104FE0003F033E1BB600B444013F7F05C91B49087F
:104FF0002E6F013676089C02950D25437543ED13FF
:105000007543AD1301356D10F603761B0CB4CC025D
:10501000450D2C43A2B2B3B25A43270C7B43350C47
:105020006F43A4B26C431B1902D3012424043F191B
:105030001C041D0CA4187D4124196D41009A91B2E5
:10504000ACB26143170C7C432B0C5F4392B25A43C2
:10505000A41802D301221204BF182204230C5218F0
:105060007B41019C6C431B19520ED9010A43440138
:10507000A01A81B2B2B2514303145A43360C73439F
:1050800087B27743D617D21900277E4136049B1981
:105090001704160C7F185E417316ED18F3010026F5
:1050A00080337541A90F06D16400690AE8055B0ADF
:1050B000184309D22FE00422944480337541A90A91
:1050C000A8059B0A184326D3404149412404009A6D
:1050D000019B0D005543641B4343E41A95B286B20D
:1050E0007543170C7E43030C5F4392B25A43B618C4
:1050F00002D301221204BF183204330C52197B412F
:1051000052429C41002C02D40022013051414008FF
:10511000CA071043490802B06246D7079210084BED
:10512000D218084B9A4203D212058918C919F0BD4A
:105130000020002A01DC3900F0BD01331905F5E734
:10514000FD030000FE070000002200B5203200F041
:1051500004F8080000BD000000220B150AD410B5A9
:10516000944600F05FF81414013400DA0021CB17E4
:10517000144C20470020002170476244343A0CD47C
:105180000C2A07DA04009140904052422032D44069
:10519000214310BDD843D94310BD203207D40C465B
:1051A0009440524220321141D040204310BD0800AB
:1051B000C917203203D452422032104110BD1800CA
:1051C000190010BD7B5100104A00520D144BD21A29
:1051D00013DDFF2A1EDAD205CB0FDB071A43C3000B
:1051E000400F0903490A084310435B0001D301D073
:1051F000013070474308FBD2704702D0C80FC00788
:1052000070470A0312130132F8D1420F072AF5D171
:10521000012200E0FF22C80F00028018C00570477D
:10522000800300000A0DCC0F531E1B05C91A52053E
:1052300003D3C943404200D30131520D03D0531C64
:10524000DB0A07D0121B00206400611C8907891249
:10525000803A1203014BD21A70470000FF0300008E
:1052600051434343C9188C46110C83B24B4310B4CD
:10527000040C614392B280B2504362431C041B0C85
:10528000001910BC59411304120CC018514161445B
:105290007047000048404140484000239C46114B65
:1052A0005B68184700239C460E4B1B6818470E4A44
:1052B000936F9B0804D200239C460A4BDB68184777
:1052C000F0B5146E556E576F166FFFF7F4FF064A70
:1052D0001466556657671667F0BD00239C46014B60
:1052E0009B6818471C120020000000D0C10FC9079E
:1052F00000D54042002817D0F44603B40B4B1B687E
:10530000984706BC81409E384042803107D20B0648
:1053100007D04900490AC0051043084360470130DF
:10532000F8E7490A8902F5E77047000018120020E3
:1053300041000A0E80231B067E2A0BDD9E3A0BDA03
:10534000C1174002400818435242D0404900013181
:105350004843704700207047C00FC018013870479D
:10536000C0420DD300B540004008002100F012F803
:10537000002801D4404200BD8020000600BD00008E
:10538000034BDB69FC4618471CDFE95400100000A2
:105390001C12002000239C46014B5B6A184700004A
:1053A0001C120020034BDB6FFC4618477CDF0155C5
:1053B000001000001C12002070B513231D782A482D
:1053C000FFF736F80400012D11D0012D09DDA31ED1
:1053D0001B789B007F2B40DD80222100234800F0BA
:1053E000B5F82348FFF71CF8224B186070BD542213
:1053F00001001E4800F0AAF81F4B1A881F4B9A4262
:105400001CD1A7239B011A881D4B9A4216D11D4B14
:105410001A881D4B9A4211D11C4B1A8894239B0168
:105420009A420BD11A4B1A881A4B9A4206D11A4B40
:105430001A681A4B9A4201D1152307E01848FDF764
:1054400001FD99001748094A885001331F2BF8D9EC
:10545000144A064B1A62DA61B7E7134B134A42212A
:105460001348FDF755FCC046534600001C120020AF
:105470004C33000018120020EE290000C40F000079
:10548000C20D0000962B0000C0B50000182B0000D4
:10549000CC2A000010B50000FC2C000051ED876400
:1054A0007C8A0010B5540010249A0010A49A0010B1
:1054B000589A001007B56046002800D100BE018848
:1054C0000A0A0230DF2AFAD1C9B2820804D302885C
:1054D00040880004104300E00068024A50500390E6
:1054E00007BD00001C1200200021C215803280324E
:1054F00001D0024A1047002070470000CD2A00006A
:10550000C30FDB0741000A0E07D0FF2A08D00909A4
:10551000054A891819434007704719000020704751
:105520000249C918FAE70000000000380000F07FC7
:1055300001480421014B1847B004002041440010E9
:10554000014B1B6818470000B0040020014B5B684A
:1055500018470000B004002010B503000800110037
:105560001B68984710BD0000F8B507000D00160035
:10557000437C002B02D0002400200CE003681100C3
:10558000280098472DE03B7C10E0022115483B683D
:105590009847601C0134B44214DA002CF3DD2B1957
:1055A000013B1B780D3B5A425341DBB22A5D0A2A6C
:1055B000F0D1002BEED1A042E7DA211A28183B687F
:1055C0009847E2E7B04203DA311A28183B68984757
:1055D000002E06DDAD19013D2B780D3B5A4253419B
:1055E0003B74F8BD349B001070B505000368002BB8
:1055F00016D00C4B1C6805E0290004C92000FFF7F9
:10560000B3FFE468002C09D02368002BF9D0064BC7
:105610001B68002BF0D0A342F3D1EDE700232B60F1
:1056200070BDC046F00C0020F40C002070B50500E1
:105630000C000B68802B05D021684B1C236064187C
:10564000257170BD0800FFF7CFFFF5E710B582B0F8
:10565000D0231B0600241C5701A9074803F024F996
:10566000002806D1019B9C4203D0034803F02CF98B
:10567000012002B010BDC0460805002010B5024848
:1056800003F0FAF810BDC04608050020F0B5CE467C
:10569000474680B583B006000D0090461C00FFF71A
:1056A000D5FF81466B1C05D0002C08D0194F1A4B32
:1056B0001C6807E0300003F0A7F80500F4E7174F77
:1056C000F5E7E468002C17D02368002BF9D0144BC1
:1056D0001B68002B01D0A342F3D12A003100200027
:1056E000B8474346002BECD06B46D91D0A230B70FC
:1056F00001222000B847E4E74B46002B07D16B1E80
:105700009D41E8B203B0C0BCB946B046F0BDFFF75A
:10571000B5FFF4E759550010F00C00206955001052
:10572000F40C002010B582B004006B46D81D047044
:10573000002300220121FFF7A9FF200002B010BDC5
:10574000094A01E00C331A001368002B08D0834289
:10575000F8D1002907D1C36813600023C36002E0B9
:10576000002900D010607047F00C002010B5064BE7
:105770001C6801E09847E468002C03D06368002BA4
:10578000F8D1F8E710BDC046F00C002070B5050058
:1057900003F03AF804000023012201002800FFF77B
:1057A00075FFFFF7E3FF200070BD000070B5A2B0E9
:1057B00004000E00FFF74AFF05008422002101A823
:1057C000FFF7BEFE3300220001A90848FEF710FED5
:1057D000040001A8FFF708FFFFF7C8FF002D02D162
:1057E000200022B070BDFFF749FFF9E72D560010E9
:1057F0000FB400B583B004A901C90191FFF7D6FF2A
:1058000003B008BC04B0184710B500F053F910BD40
:1058100070470000014B00221A707047531300209C
:105820004B79FF2B0CD18B79002B0BD1CB79012B32
:105830000AD1082A0AD98A78054B1A70092000E093
:10584000002070470020FCE70020FAE70020F8E77E
:10585000531300200120704770B504000D00034869
:10586000FEF7DEFD030029002000984755420000A6
:1058700010B5002926D1117953791B020B43124927
:1058800009788B4201D0002010BD5378012B03D042
:10589000022B10D00020F7E79178D3781B02194330
:1058A000DB0503D54B0A0120984000E000207F2350
:1058B0001940FFF7D1FF642200210020FDF7D0FC42
:1058C0000120E1E70120DFE75313002001230370EB
:1058D00000487047389B001010B50B7848780002DC
:1058E00018438A7812041043CB781B060343962290
:1058F000D200934200D010BD00210800FFF7ACFF9A
:1059000030B583B005000C0001A9184802F0CCFFA7
:10591000002808D1D0231B061B68019A9A4221D087
:10592000124802F0D1FF002001F05AFE002807D1F2
:10593000032464420D4802F09FFF200003B030BDF5
:10594000002001F06FFE002802D103246442F1E739
:1059500022002900002001F071FE041EEAD1032478
:105960006442E7E703246442E7E7C04620130020CF
:1059700010B50021054802F097FF002800D110BDA6
:1059800001F0C6FB014802F077FFF8E72013002082
:10599000F0B5C64600B582B080460D0001A92E487C
:1059A00002F082FF002808D1D0231B061B68019A51
:1059B0009A420FD0284802F087FF002001F010FE25
:1059C000002847D1254B002000211860596022484B
:1059D00002F052FF02B080BCB846F0BD01F098FB67
:1059E000002001F03FFE002001F0FAFD0028EED07B
:1059F000002001F0B9FE00281DD0AC42E7DA2E1BD2
:105A0000002001F0B1FE0200864200DC3200002AD4
:105A1000E4D043461919002001F08AFE060001F087
:105A200077FB002001F01EFEA419FCF72FFE0B4BA4
:105A300018605960E1E7FCF729FE084B1E685F68B3
:105A4000074A002392197B419942C0D8D5D1904290
:105A5000D3D9BCE70024D0E7201300203006002073
:105A600020A1070010B50A4B1A78D0231B061B682B
:105A70009A4207D1074B1878FBF730FDFA208000D7
:105A8000002110BD044B054A32210548FDF740F9BD
:105A90005513002054130020509B0010FC9B001055
:105AA000789B001010B5024B1878FBF717FD10BD5E
:105AB0005413002070B584B0D0231B061A782D4BE8
:105AC0001A702D4B1B7802F095F82C48FDF7EAF878
:105AD0000120FBF7C1FFC0B2294C20702949FBF718
